:020000040800F2
:10000000A80400206D03000841AF000879A3000890
:1000100039AF0008A10A000819D20008000000004A
:1000200000000000000000000000000061B60008B1
:100030003915000800000000E9B00008C1B600084A
:100040008B0300088B0300088B0300088B03000858
:100050008B0300088B0300088B0300088B03000848
:10006000411500088B0300088B030008A90A00084B
:100070008B0300088B0300088B0300088B03000828
:100080008B0300088B0300088B0300088B03000818
:100090008B0300088B0300088B0300088B03000808
:1000A0008B0300088B0300088B0300088B030008F8
:1000B0008B0300088B0300088B0300088B030008E8
:1000C0008B0300088B0300088B0300088B030008D8
:1000D0008B0300088B0300088B0300088B030008C8
:1000E0008B0300088B030008000000008B0300084E
:1000F0008B0300088B0300088B0300088B030008A8
:100100008B0300088B0300088B0300088B03000897
:100110008B0300088B0300088B0300088B03000887
:100120008B0300088B0300088B0300088B03000877
:100130008B0300088B0300088B0300088B03000867
:1001400000000000000000000000000000000000AF
:100150008B0300088B0300088B0300088B03000847
:100160008B0300088B0300088B0300088B03000837
:100170008B0300088B0300088B03000800000000BD
:100180008B0300088B0300088B0300088B03000817
:100190008B0300088B0300088B0300088B03000807
:1001A0008B0300088B0300088B030008000000008D
:1001B0008B0300088B0300088B0300088B030008E7
:1001C0008B0300088B030008000000000000000003
:1001D00000000000000000008B0300080000000089
:1001E000000000000000000000000000000000000F
:1001F00000000000000000008B0300088B030008D3
:100200008B0300088B030008000000008B0300082C
:100210008B0300088B0300088B0300088B03000886
:100220008B030008000000008B03000800000000A2
:100230008B0300088B030008000000008B030008FC
:100240008B0300088B0300088B0300088B03000856
:100250008B0300088B0300088B0300088B03000846
:100260008B0300088B0300088B0300088B03000836
:100270008B0300088B0300088B03000800000000BC
:100280008B0300088B0300088B0300088B03000816
:10029000000000008B0300088B0300080000000032
:1002A000000000008B0300088B0300088B0300088C
:1002B0008B0300088B0300088B0300088B030008E6
:1002C0008B0300088B0300088B03000800F002F882
:1002D00000F03CF80AA090E8000C82448344AAF1A4
:1002E0000107DA4501D100F031F8AFF2090EBAE8A2
:1002F0000F0013F0010F18BFFB1A43F0010318475A
:10030000D8DA000018DB0000103A24BF78C878C1A2
:10031000FAD8520724BF30C830C144BF04680C600B
:10032000704700000023002400250026103A28BF53
:1003300078C1FBD8520728BF30C148BF0B60704757
:100340001FB50DF00BFD1FBD10B510BD00F0E8F896
:100350001146FFF7F5FF0DF09FF900F006F903B421
:10036000FFF7F2FF03BC00F009F900000A488047DC
:100370000A4880470A480047FEE7FEE7FEE7FEE737
:10038000FEE7FEE7FEE7FEE7FEE7FEE70548064973
:10039000064A074B704700006115000899B700082E
:1003A000CD020008B8020024A8040020B8040024EC
:1003B000A800002053EA020C00F069802DE9F04B00
:1003C0004FF00006002B1FBFB3FA83F503FA05F4C4
:1003D00024FA05F65E4012BF1643B2FA82F502FA1D
:1003E00005F4C5F120051EBF22FA05FC44EA0C0401
:1003F000203556EA044C4FEA144418BF641C4FF0F1
:1004000000084FF00009904271EB030C39D300292A
:1004100019BFB1FA81F701FA07F6B0FA80F700FACE
:1004200007F6C7F120071EBF20FA07FC46EA0C06B4
:100430002037B6FBF4FCA7EB0507103F07F01F0BB6
:10044000CBF120062CFA06F60CFA0BFB44BFB346A0
:100450000026202FA4BF5E464FF0000B5BEA060C7F
:1004600008BF4FF0010B19EB0B0948EB0608ABFB7B
:10047000027C06FB02CC0BFB03CCC01B71EB0C0116
:10048000C1E70B46024641464846BDE8F08B13B52E
:10049000084318BF4FF0FF300146AFF30080BDE8BE
:1004A0001C4070474FF0000200B513469446964634
:1004B000203922BFA0E80C50A0E80C50B1F1200177
:1004C000BFF4F7AF090728BFA0E80C5048BF0CC025
:1004D0005DF804EB890028BF40F8042B08BF704783
:1004E00048BF20F8022B11F0804F18BF00F8012BF5
:1004F000704770477047704710B500F009F8006802
:1005000010BD10B5044600F003F8046010BD0000F3
:100510000048704710000024004870471000002475
:100520007546FFF7F9FFAE4605006946534620F0D1
:100530000700854618B020B5FFF728FFBDE820402A
:100540004FF000064FF000074FF000084FF0000B8F
:10055000AC46ACE8C009ACE8C009ACE8C009ACE8FE
:10056000C00921F007018D46704710B50446AFF36E
:1005700000802046BDE81040FFF7F1BE0149182079
:10058000ABBEFEE72600020070470000000000003E
:1005900080B584B003900398006842F20001C4F271
:1005A0000201884209D0FFE70398006842F2001177
:1005B000C4F20201884209D1FFE742F20830C4F2D6
:1005C0000200006810F4403F09D129E046F20830EB
:1005D000C5F60200006810F4403F21D0FFE707F0A5
:1005E0001BFF0290039840680190B0F5803F0AD04D
:1005F000FFE70198B0F5003F05D0FFE70198B0F59F
:10060000403F07D00AE00398C1880298B0FBF1F0A0
:10061000029004E002988008029000E0FFE75FE0AB
:100620004FF40020002105F047FF02900398406836
:100630000090B0F5802F32D0FFE70098B0F5002F82
:100640002DD0FFE70098B0F5402F28D0FFE70098A5
:10065000B0F5801F23D0FFE70098B0F5A01F1ED093
:10066000FFE70098B0F5C01F19D0FFE70098B0F57C
:10067000E01F1FD0FFE70098B0F5001F1ED0FFE776
:100680000098B0F5101F1DD0FFE70098B0F5201FAF
:100690001CD0FFE70098B0F5301F1BD01EE0039878
:1006A00041686FF0010000EA51410298B0FBF1F09F
:1006B000029014E002980009029010E002984009AC
:1006C00002900CE002988009029008E00298C009AC
:1006D000029004E00298000A029000E0FFE7FFE7C2
:1006E000029840080290029845F61061C0F25F013E
:1006F000884209D8FFE703980068806820F44070BA
:100700000399096888602EE002984BF62041C0F2F8
:10071000BE0188420AD8FFE703980068806801217B
:1007200061F309200399096888601BE0029847F685
:100730004001C0F27D1188420AD8FFE703980068A3
:100740008068022161F3092003990968886008E044
:1007500003980068806840F44070039909688860D5
:10076000FFE7FFE7FFE704B080BD000000000000E6
:1007700080B582B001900198806B00900098006E67
:1007800010F0500F4AD1FFE70099086E40F4007056
:1007900008660098006800680007002821D5FFE778
:1007A0000098006809F09CFED0B1FFE7009800684F
:1007B000C0688004002812D4FFE70099086E20F476
:1007C000807008660098006EC004002806D4FFE719
:1007D0000099086E40F001000866FFE7FFE7FFE7B9
:1007E00018E000980068C068800790B9FFE700999A
:1007F000086E20F4807008660098006EC00400281F
:1008000006D4FFE70099086E40F001000866FFE794
:10081000FFE7FFE7009801F00FFF10E00098006E7F
:10082000C006002804D5FFE7009802F0F9F805E0BB
:100830000098806DC16C01988847FFE7FFE702B020
:1008400080BD00000000000080B582B001900198DA
:10085000806B00900099086E40F040000866009997
:10086000486E40F004004866009802F0D9F802B0E3
:1008700080BD00000000000080B582B001900198AA
:10088000806B0090009802F0C7F802B080BD0000B5
:1008900080B584B002900298006809F0F1FD0090E4
:1008A0000298006809F0F4FD00284BD0FFE700989B
:1008B000002847D1FFE702980068806800F00D002B
:1008C000012809D1FFE70298006809F059FD029854
:1008D0000168032008600DE00299086E40F01000E6
:1008E00008660299486E40F00100486601208DF8C4
:1008F0000F002BE005F028F80190FFE70298006850
:100900008068C007E8B1FFE705F01EF80199401ABA
:10091000032815D3FFE7029800688068C00770B10C
:10092000FFE70299086E40F0100008660299486ED1
:1009300040F00100486601208DF80F0006E0FFE757
:10094000DCE7FFE700208DF80F00FFE79DF80F00C0
:1009500004B080BD0000000080B586B0049004980B
:10096000006809F095FD002840F09280FFE70498A8
:10097000006880683F21C8F2000108420ED0FFE7FE
:100980000499086E40F0100008660499486E40F023
:100990000100486601208DF817007DE0049800688A
:1009A00009F00AFD04F0D0FF0390049801680120CB
:1009B00042F20002C4F20202914201900CD0FFE721
:1009C000049800684DF60071CBF6FD710844B0FA4A
:1009D00080F040090190FFE70198C10746F200301E
:1009E000C5F6020000291CBF42F20030C4F202002A
:1009F00009F016FD02900498006842F20011C4F25A
:100A00000201884206D1FFE742F20000C4F2020070
:100A1000009003E0049800680090FFE700980499B4
:100A20000968884203D0FFE7029880BBFFE7FFE731
:100A3000049800680068C00740BBFFE7049800689E
:100A400009F026FD28B9FFE70498006809F0B4FC16
:100A5000FFE704F079FF0399401A032815D3FFE755
:100A6000049800680068C00770B9FFE70499086E31
:100A700040F0100008660499486E40F00100486696
:100A800001208DF8170007E0FFE7D1E7FFE7FFE758
:100A900000208DF81700FFE79DF8170006B080BD15
:100AA000FFE7FEE70000000080B540F2F400C2F26C
:100AB000004002F00DFC80BD83B0029002980168F6
:100AC00001201022C4F202029142009000F0A380A3
:100AD000FFE70298016801202822C4F20202914235
:100AE000009000F09880FFE7029801680120402202
:100AF000C4F202029142009000F08D80FFE702985C
:100B0000016801205822C4F202029142009000F0D4
:100B10008280FFE70298016801207022C4F202027D
:100B20009142009077D0FFE7029801680120882267
:100B3000C4F20202914200906DD0FFE70298016872
:100B40000120A022C4F202029142009063D0FFE78C
:100B5000029801680120B822C4F20202914200907A
:100B600059D0FFE702980168012040F21042C4F218
:100B70000202914200904ED0FFE7029801680120E6
:100B800040F22842C4F202029142009043D0FFE7B3
:100B900002980168012040F24042C4F202029142F0
:100BA000009038D0FFE702980168012040F25842D7
:100BB000C4F20202914200902DD0FFE70298016832
:100BC000012040F27042C4F202029142009022D011
:100BD000FFE702980168012040F28842C4F2020255
:100BE0009142009017D0FFE702980168012040F27F
:100BF000A042C4F20202914200900CD0FFE702989A
:100C000000684FF64831CBF6FD710844B0FA80F029
:100C100040090090FFE70098C00740B3FFE7029843
:100C2000007810384AF6AB21CAF6AA21A0FB0110C1
:100C300000090190019800F007014DF6A850C0F698
:100C40000000405C0299C8650198042807D3FFE7BB
:100C500002990868042262F30900886506E0029997
:100C6000086840F2FF3290438865FFE705E002998B
:100C7000086820F0FF008865FFE70298806D03B0E8
:100C8000704700000000000084B0039003980068E3
:100C9000019003980168012045F20842C5F602025E
:100CA000914200904ED0FFE703980168012045F281
:100CB0001C42C5F602029142009043D0FFE7039820
:100CC0000168012045F23042C5F6020291420090CF
:100CD00038D0FFE703980168012045F24442C5F689
:100CE0000202914200902DD0FFE703980168012095
:100CF00045F25842C5F602029142009022D0FFE729
:100D000003980168012045F26C42C5F60202914247
:100D1000009017D0FFE703980168012045F2804258
:100D2000C5F60202914200900CD0FFE703980068DC
:100D30004AF66C31CAF2FD710844B0FA80F04009FD
:100D40000090FFE70098C00710B3FFE70398007812
:100D500008384CF6CD41CCF6CC41A0FB011000097F
:100D60000290029945F60000C5F6020000EB8100F2
:100D700003990866039945F68000C5F602004866A7
:100D8000029800F01F01012088400399886635E031
:100D90000398007810384AF6AB21CAF6AA21A0FBC6
:100DA000011000090290019840F2B841C4F202011A
:100DB00088420CD8FFE7019840F21041C4F20201CA
:100DC000884204D3FFE7029808300290FFE70299B7
:100DD00040F60000C4F2020000EB810003990866AF
:100DE000039940F68000C4F202004866029800F0C1
:100DF0001F010120884003998866FFE704B070470F
:100E000083B002900298007901900198002800F0C8
:100E10008A80FFE70198082800F28580FFE70298A2
:100E20000168012045F20842C5F602029142009095
:100E30004ED0FFE702980168012045F21C42C5F63A
:100E400002029142009043D0FFE70298016801201E
:100E500045F23042C5F602029142009038D0FFE7D9
:100E600002980168012045F24442C5F6020291420F
:100E700000902DD0FFE702980168012045F258420A
:100E8000C5F602029142009022D0FFE70298016865
:100E9000012045F26C42C5F602029142009017D043
:100EA000FFE702980168012045F28042C5F6020280
:100EB000914200900CD0FFE7029800684AF66C312E
:100EC000CAF2FD710844B0FA80F040090090FFE7D3
:100ED0000098C00780B1FFE7019945F6FC00C5F610
:100EE000020000EB81000299C866029945F64010A5
:100EF000C5F6020008670FE0019940F6FC00C4F255
:100F0000020000EB81000299C866029940F6401089
:100F1000C4F202000867FFE70198411E01208840E3
:100F200002994867FFE703B0704700000000000027
:100F300085B0049000208DF80F000498806918BBDC
:100F4000FFE70498806A029003281BD80299DFE823
:100F500001F0020D0218049890F82F00C00720B18C
:100F6000FFE701208DF80F00FFE70CE00498C06A4E
:100F7000B0F1C07F04D1FFE701208DF80F00FFE73B
:100F800001E000E0FFE747E004988069B0F5005F0A
:100F900026D1FFE70498806A019003281ED80199A2
:100FA000DFE801F00206021101208DF80F0016E0C3
:100FB000049890F82F00C00720B1FFE701208DF8BA
:100FC0000F00FFE70BE00498C06AB0F1C07F04D1C6
:100FD000FFE701208DF80F00FFE700E0FFE71AE0D0
:100FE0000498806A0090032804D3FFE70098032840
:100FF00004D00EE001208DF80F000BE0049890F86B
:101000002F00C00720B1FFE701208DF80F00FFE798
:1010100000E0FFE7FFE7FFE79DF80F0005B070472E
:1010200089B008900791069205930898806D049006
:101030000898806D03900898016801201022C4F27E
:1010400002029142029000F00381FFE708980168D4
:1010500001202822C4F202029142029000F0F8809E
:10106000FFE70898016801204022C4F20202914281
:10107000029000F0ED80FFE70898016801205822F7
:10108000C4F202029142029000F0E280FFE7089869
:10109000016801207022C4F202029142029000F025
:1010A000D780FFE70898016801208822C4F2020275
:1010B0009142029000F0CC80FFE70898016801207F
:1010C000A022C4F202029142029000F0C180FFE728
:1010D000089801680120B822C4F2020291420290ED
:1010E00000F0B680FFE708980168012040F2104246
:1010F000C4F202029142029000F0AA80FFE7089831
:101100000168012040F22842C4F20202914202909A
:1011100000F09E80FFE708980168012040F24042FD
:10112000C4F202029142029000F09280FFE7089818
:101130000168012040F25842C4F20202914202903A
:1011400000F08680FFE708980168012040F27042B5
:10115000C4F20202914202907AD0FFE70898016837
:10116000012040F28842C4F20202914202906FD004
:10117000FFE708980168012040F2A042C4F2020291
:101180009142029064D0FFE708980168012040F284
:10119000B842C4F202029142029059D0FFE7089887
:1011A0000168012045F20842C5F602029142029010
:1011B0004ED0FFE708980168012045F21C42C5F6B1
:1011C00002029142029043D0FFE708980168012093
:1011D00045F23042C5F602029142029038D0FFE754
:1011E00008980168012045F24442C5F60202914286
:1011F00002902DD0FFE708980168012045F258427F
:10120000C5F602029142029022D0FFE708980168D9
:10121000012045F26C42C5F602029142029017D0BD
:10122000FFE708980168012045F28042C5F60202F6
:10123000914202900CD0FFE7089800684AF66C31A2
:10124000CAF2FD710844B0FA80F040090290FFE74D
:101250000298C00770B1FFE70898416E806E486041
:101260000898C06E28B1FFE70898016F406F48608A
:10127000FFE7FFE70898016801201022C4F202028C
:101280009142019000F0A380FFE7089801680120D7
:101290002822C4F202029142019000F09880FFE7F8
:1012A0000898016801204022C4F202029142019094
:1012B00000F08D80FFE70898016801205822C4F2F1
:1012C00002029142019000F08280FFE708980168D5
:1012D00001207022C4F202029142019077D0FFE710
:1012E0000898016801208822C4F20202914201900C
:1012F0006DD0FFE7089801680120A022C4F2020225
:101300009142019063D0FFE7089801680120B8225C
:10131000C4F202029142019059D0FFE70898016897
:10132000012040F21042C4F20202914201904ED0DC
:10133000FFE708980168012040F22842C4F2020247
:101340009142019043D0FFE708980168012040F2E4
:101350004042C4F202029142019038D0FFE708985F
:101360000168012040F25842C4F202029142019009
:101370002DD0FFE708980168012040F27042C4F2C6
:1013800002029142019022D0FFE7089801680120F3
:1013900040F28842C4F202029142019017D0FFE766
:1013A00008980168012040F2A042C4F20202914272
:1013B00001900CD0FFE7089800684FF64831CBF653
:1013C000FD710844B0FA80F040090190FFE70198F0
:1013D000C00750B3FFE70898C06D00F01F013F2021
:1013E00088400499886008980168086820F4802083
:1013F000086005980899096848600898806840283E
:1014000009D1FFE706980899096888600798089944
:101410000968C86008E00798089909688860069814
:1014200008990968C860FFE782E008980168012010
:1014300045F20842C5F60202914200904ED0FFE705
:1014400008980168012045F21C42C5F6020291424B
:10145000009043D0FFE708980168012045F2304230
:10146000C5F602029142009038D0FFE70898016863
:10147000012045F24442C5F60202914200902DD06F
:10148000FFE708980168012045F25842C5F60202BC
:101490009142009022D0FFE708980168012045F2B0
:1014A0006C42C5F602029142009017D0FFE70898FF
:1014B0000168012045F28042C5F602029142009087
:1014C0000CD0FFE7089800684AF66C31CAF2FD714B
:1014D0000844B0FA80F040090090FFE70098C00788
:1014E00020B3FFE70898C06D00F01F01012088407D
:1014F00003994860059808990968486008988068C9
:10150000402809D1FFE7069808990968886007987C
:1015100008990968C86008E0079808990968886010
:10152000069808990968C860FFE700E0FFE7FFE751
:1015300009B0704700000000704700000000000084
:1015400080B5042003F0F8FF80BD0000000000001B
:1015500081B0EFF3108072B60090FFE7FEE7000065
:1015600044F60C01C5F60201086840F0020008606C
:10157000FFE744F60400C5F6020000688004002876
:1015800001D4FFE7F5E7704780B586B0049003917A
:10159000029200200090FFE7049890F85C00012878
:1015A00004D1FFE702208DF817005BE004990120C9
:1015B00081F85C00FFE7FFE70498FFF769F98DF811
:1015C00007009DF80700E0BBFFE70498006E40F0BD
:1015D000020020F488500499086604980068039972
:1015E000029A09F059F9FFE70498006808F038FFFB
:1015F000F0B1FFE700980130009000984FF600012D
:10160000C2F2C351884212D3FFE70498006E40F043
:10161000100020F0020004990866FFE704990020FA
:1016200081F85C00FFE701208DF817001AE0DBE786
:101630000498006E40F0010020F002000499086652
:1016400005E00499086E40F010000866FFE7FFE728
:101650000499002081F85C00FFE79DF807008DF8F1
:101660001700FFE79DF8170006B080BD00000000DE
:1016700080B5AAB02890279100208DF89B0027986C
:10168000006808B1FFE7FFE7FFE7289890F85C00E3
:10169000012804D1FFE702208DF8A7002DE1289949
:1016A000012081F85C00FFE7FFE7002021902290F5
:1016B0002898006842F20001C4F20201884206D173
:1016C000FFE742F20010C4F20200099002E000209D
:1016D0000990FFE7099878B9FFE72899086E40F06C
:1016E00020000866FFE72899002081F85C00FFE7EA
:1016F00001208DF8A70000E1099808F0E9FE0890A4
:101700002898006808F0E4FE002840F0E280FFE737
:101710000898002840F0DD80FFE728980168012044
:1017200042F20002C4F20202914207900CD0FFE79D
:10173000289800684DF60071CBF6FD710844B0FAA8
:1017400080F040090790FFE70798C10746F2003094
:10175000C5F6020000291CBF42F20030C4F20200AC
:1017600025902798006800285ED0FFE725988068BC
:1017700020F44040279949680843259988602898B3
:101780000168012042F20002C4F202029142069076
:101790000CD0FFE7289800684DF60071CBF6FD717C
:1017A0000844B0FA80F040090690FFE70698C107A8
:1017B00046F20030C5F6020000291CBF42F200309C
:1017C000C4F2020042F20031C4F20201884212D196
:1017D000FFE742F20000C4F2020008F061FE04904C
:1017E00042F20010C4F2020008F05AFE01460498CA
:1017F0000843059007E046F20000C5F6020008F035
:101800004FFE0590FFE7059868B9FFE725988068C7
:1018100040F61F718843279A116892681143084364
:1018200025998860FFE753E02599886820F44040B7
:10183000886028980168012042F20002C4F2020286
:10184000914203900CD0FFE7289800684DF6007194
:10185000CBF6FD710844B0FA80F040090390FFE731
:101860000398C10746F20030C5F6020000291CBFEC
:1018700042F20030C4F2020042F20031C4F202012E
:10188000884212D1FFE742F20000C4F2020008F0E1
:1018900007FE019042F20010C4F2020008F000FEC0
:1018A000014601980843029007E046F20000C5F6A1
:1018B000020008F0F5FD0290FFE7029838B9FFE753
:1018C0002599886840F61F7290438860FFE7FFE71C
:1018D00008E02899086E40F02000086601208DF885
:1018E0009B00FFE7FFE72899002081F85C00FFE7F5
:1018F0009DF89B008DF8A700FFE79DF8A7002AB090
:1019000080BD00000000000080B5CEB03A90399153
:1019100000208DF8E30035903A9890F844000128B3
:1019200001D1FFE70BE03A98006846F20001C5F6E6
:101930000201884201D1FFE700E0FFE7FFE73998A5
:10194000C0680021C4F2FF71884201D0FFE71EE0A9
:101950003A98006842F20001C4F20201884201D1C3
:10196000FFE7FFE73A98006842F20011C4F2020173
:10197000884201D1FFE7FFE73A98006846F200018C
:10198000C5F60201884201D1FFE7FFE7FFE7FFE765
:101990003A9890F85C00012805D1FFE702208DF805
:1019A000EF0000F043BE3A99012081F85C00FFE7A8
:1019B000FFE73A98006808F083FD002840F022868F
:1019C000FFE73998C0780006002837D4FFE73A9837
:1019D000006846F20001C5F6020188422DD0FFE7FB
:1019E00039980068000330B9FFE739980068C0F300
:1019F0008460329015E03998006890FAA0F03C902D
:101A00003C9820B9FFE720208DF8F70005E03C98CE
:101A1000B0FA80F08DF8F700FFE79DF8F7003290FC
:101A2000FFE7329800F01F01012000FA01F23A9816
:101A30000168C8691043C861FFE7FFE73A9800688A
:101A400039990A68496808F07FFD3A98006808F0FB
:101A500037FD34903A98006808F0FAFC33903498D7
:101A6000002840F05A82FFE73398002840F0558262
:101A7000FFE73A980068399A1168926808F0CCFD3F
:101A80003A98006846F20001C5F6020188420BD17F
:101A9000FFE7399840693A990968C96801F0180167
:101AA00089088840379038E041F20000C5F60040D0
:101AB000006800F07040B0F1805F0BD1FFE739980B
:101AC00040693A990968C96801F01C0149088840D1
:101AD00031901FE03A980068C068C00600280BD417
:101AE000FFE7399840693A990968C96801F01C0113
:101AF0004908884030900AE0399840693A99096865
:101B0000C96801F01001490888403090FFE730981B
:101B10003190FFE731983790FFE739980069042842
:101B200041D0FFE73A98006839990A680969379BFC
:101B300008F0FAFD3A98006846F20001C5F6020185
:101B4000884215D1FFE73A980068399A1169D2693D
:101B500008F03AFE3A980068399A116992F8202004
:101B6000013AB2FA82F25209520608F00DFE19E06B
:101B70003A980068399A116992F82120013AB2FA2C
:101B800082F25209D20708F03FFE3A980068399A6B
:101B90001169127E013AB2FA82F25209D20208F0B9
:101BA000AFFDFFE7B8E13A98006846F20001C5F6DC
:101BB0000201884240F06681FFE73A980068002100
:101BC00008F036FC000348B9FFE73A9800680021A6
:101BD00008F02EFCC0F384602F9018E03A9800685B
:101BE000002108F025FC90FAA0F03E903E9820B924
:101BF000FFE720208DF8FF0005E03E98B0FA80F066
:101C00008DF8FF00FFE79DF8FF002F90FFE72F986A
:101C10002E9039980068000330B9FFE739980068C2
:101C2000C0F384602D9015E03998006890FAA0F018
:101C30004090409820B9FFE720208DF8070105E08B
:101C40004098B0FA80F08DF80701FFE79DF8070192
:101C50002D90FFE72E982D99884207D1FFE73A98FB
:101C600000680022114608F0EFFDFFE73A9800688F
:101C7000012108F0DDFB000348B9FFE73A9800684E
:101C8000012108F0D5FBC0F384602C9018E03A984D
:101C90000068012108F0CCFB90FAA0F04290429835
:101CA00020B9FFE720208DF80F0105E04298B0FA37
:101CB00080F08DF80F01FFE79DF80F012C90FFE7F2
:101CC0002C982B9039980068000330B9FFE73998B9
:101CD0000068C0F384602A9015E03998006890FA93
:101CE000A0F04490449820B9FFE720208DF8170118
:101CF00005E04498B0FA80F08DF81701FFE79DF8F1
:101D000017012A90FFE72B982A99884207D1FFE70D
:101D10003A9800680121002208F096FDFFE73A9802
:101D20000068022108F084FB000348B9FFE73A98F5
:101D30000068022108F07CFBC0F38460299018E061
:101D40003A980068022108F073FB90FAA0F04690E0
:101D5000469820B9FFE720208DF81F0105E046983E
:101D6000B0FA80F08DF81F01FFE79DF81F01299060
:101D7000FFE72998289039980068000330B9FFE7F9
:101D800039980068C0F38460279015E0399800689E
:101D900090FAA0F04890489820B9FFE720208DF8ED
:101DA000270105E04898B0FA80F08DF82701FFE799
:101DB0009DF827012790FFE728982799884207D1A7
:101DC000FFE73A9800680221002208F03DFDFFE796
:101DD0003A980068032108F02BFB000348B9FFE79D
:101DE0003A980068032108F023FBC0F38460269032
:101DF00018E03A980068032108F01AFB90FAA0F066
:101E00004A904A9820B9FFE720208DF82F0105E07D
:101E10004A98B0FA80F08DF82F01FFE79DF82F0166
:101E20002690FFE72698259039980068000330B97E
:101E3000FFE739980068C0F38460249015E0399872
:101E4000006890FAA0F04C904C9820B9FFE7202051
:101E50008DF8370105E04C98B0FA80F08DF8370125
:101E6000FFE79DF837012490FFE7259824998842E1
:101E700007D1FFE73A9800680321002208F0E4FC4C
:101E8000FFE748E03A980068006E00F0F8403999A2
:101E90000968B0EB816F07D1FFE73A980168086ED7
:101EA00020F000400866FFE73A980068406E00F0B6
:101EB000F84039990968B0EB816F07D1FFE73A988C
:101EC0000168486E20F000404866FFE73A980068D5
:101ED000806E00F0F84039990968B0EB816F07D146
:101EE000FFE73A980168886E20F000408866FFE7B7
:101EF0003A980068C06E00F0F84039990968B0EB74
:101F0000816F07D1FFE73A980168C86E20F0004062
:101F1000C866FFE7FFE7FFE7FFE73A98006808F0C9
:101F2000B7FA002840F06D83FFE73A980068399AC5
:101F30001168D26808F08CFB3998C0680021C4F29F
:101F4000FF71884240F0F981FFE73A9800682390DA
:101F500042F20001C4F20201884240F0A480FFE78F
:101F6000399800680221C0F23041884203D1FFE76E
:101F70000120229094E0399800680421C0F66001A5
:101F8000884205D1FFE74020C1F62010219084E06F
:101F9000399800680821C0F69041884205D1FFE7D2
:101FA0008020C1F65050209074E0399800681021CC
:101FB000C1F2C001884206D1FFE740F20010C2F230
:101FC00080101F9063E0399800682021C1F2F04131
:101FD000884206D1FFE740F20020C2F2B0501E90C6
:101FE00052E03998006840F20041C2F60021884270
:101FF00006D1FFE740F60000C2F630601D9040E0D9
:102000003998006840F60001C2F63061884206D176
:10201000FFE741F20000C3F260201C902EE03998E7
:10202000006841F20001C3F26021884206D1FFE757
:1020300042F20000C3F290601B901CE039980068E7
:102040000021C4F22131884205D1FFE70020C4F20B
:1020500052701A900CE0399801680022C4F684325C
:102060000020914204BF0020C4F6B8701A90FFE728
:102070001A981B90FFE71B981C90FFE71C981D9077
:10208000FFE71D981E90FFE71E981F90FFE71F981F
:102090002090FFE720982190FFE721982290FFE70A
:1020A0002298199044E13A98006842F20011C4F273
:1020B0000201884240F09480FFE7399800680221CD
:1020C000C0F23041884203D1FFE70120189084E03C
:1020D000399800680421C0F66001884205D1FFE705
:1020E0004020C1F62010179074E03998006808214C
:1020F000C0F69041884205D1FFE78020C1F65050DC
:10210000169064E0399800681021C1F2C00188423D
:1021100006D1FFE740F20010C2F28010159053E0A4
:10212000399800682021C1F2F041884206D1FFE7CA
:1021300040F20020C2F2B050149042E0399800689A
:1021400040F20041C2F60021884206D1FFE740F686
:102150000000C2F63060139030E03998006840F615
:102160000001C2F63061884206D1FFE741F200006B
:10217000C3F2602012901EE03998006841F200011D
:10218000C3F26021884206D1FFE742F20000C3F2A9
:10219000906011900CE0399801680022C4F68432F6
:1021A0000020914204BF0020C4F6B8701190FFE7F0
:1021B00011981290FFE712981390FFE7139814906C
:1021C000FFE714981590FFE715981690FFE716980B
:1021D0001790FFE717981890FFE718981090A4E061
:1021E0003A98006846F20001C5F60201884240F0C4
:1021F0009680FFE7399800680221C0F2304188429A
:1022000003D1FFE701200F9086E039980068042190
:10221000C0F66001884205D1FFE74020C1F62010DA
:102220000E9076E0399800680821C0F69041884207
:1022300005D1FFE78020C1F650500D9066E0399837
:1022400000681021C1F2C001884206D1FFE740F2C8
:102250000010C2F280100C9055E0399800682021DF
:10226000C1F2F041884206D1FFE740F20020C2F2FD
:10227000B0500B9044E03998006840F20041C2F63B
:102280000021884206D1FFE740F60000C2F6306028
:102290000A9032E03998006840F60001C2F63061D9
:1022A000884206D1FFE741F20000C3F260200990A6
:1022B00020E03998006842F20001C3F29061884240
:1022C00006D1FFE744F20000C3F6C02008900EE0FC
:1022D0003998016844F20002C3F6C02200209142FE
:1022E00004BF48F20000C3F6F0600890FFE70898CA
:1022F0000990FFE709980A90FFE70A980B90FFE71B
:102300000B980C90FFE70C980D90FFE70D980E903E
:10231000FFE70E980F90FFE70F98079002E000206C
:102320000790FFE707981090FFE710981990FFE7D4
:102330002398199908F038F9FFE73998C078000612
:10234000002840F15D81FFE73A980168012042F2E0
:102350000002C4F20202914206900CD0FFE73A98C4
:1023600000684DF60071CBF6FD710844B0FA80F0BC
:1023700040090690FFE70698C10746F20030C5F60F
:10238000020000291CBF42F20030C4F2020008F033
:102390003FF836903A9801684FF0010042F200028F
:1023A000C4F20202914205900CD0FFE73A9800680F
:1023B0004DF60071CBF6FD710844B0FA80F040098B
:1023C0000590FFE70598C10746F20030C5F6020008
:1023D00000291CBF42F20030C4F2020042F2003178
:1023E000C4F20201884212D1FFE742F20000C4F2B7
:1023F000020008F04DF8039042F20010C4F202000F
:1024000008F046F8014603980843049007E046F2B6
:102410000000C5F6020008F03BF80490FFE70498BE
:10242000002840F0E380FFE7399800680021CCF2F3
:102430005271884255D1FFE79DF8DA000006002866
:102440004FD4FFE73A98006846F20001C5F6020152
:10245000884245D1FFE73A980168012042F2000224
:10246000C4F20202914202900CD0FFE73A98006851
:102470004DF60071CBF6FD710844B0FA80F04009CA
:102480000290FFE70298C10746F20030C5F602004D
:1024900000291CBF42F20030C4F20200369941F418
:1024A000000108F01DF940F20000C2F200000068CF
:1024B0004FEA901042F66351C0F23E51A0FB01106A
:1024C0004FEA90114FF0020000EB41003590FFE71A
:1024D000359820B1FFE7359801383590F8E7FFE7E8
:1024E00083E0399800680021CCF22131884238D14C
:1024F000FFE79DF8DB00C00798BBFFE73A9800684C
:1025000046F20001C5F60201884229D1FFE73A9858
:102510000168012042F20002C4F2020291420190DD
:102520000CD0FFE73A9800684DF60071CBF6FD71CC
:102530000844B0FA80F040090190FFE70198C10714
:1025400046F20030C5F6020000291CBF42F20030FE
:10255000C4F20200369941F0807108F0C1F8FFE73B
:1025600042E0399800680021CCF68431884239D1A4
:10257000FFE79DF8DA004006002833D4FFE73A98D9
:10258000006846F20001C5F60201884229D1FFE742
:102590003A980168012042F20002C4F2020291421C
:1025A00000900CD0FFE73A9800684DF60071CBF62A
:1025B000FD710844B0FA80F040090090FFE70098F0
:1025C000C10746F20030C5F6020000291CBF42F2E6
:1025D0000030C4F20200369941F4800108F080F81E
:1025E000FFE700E0FFE7FFE7FFE708E03A99086E42
:1025F00040F02000086601208DF8E300FFE7FFE7C8
:10260000FFE708E03A99086E40F0200008660120D4
:102610008DF8E300FFE7FFE73A99002081F85C00BE
:10262000FFE79DF8E3008DF8EF00FFE79DF8EF006E
:102630004EB080BD0000000080B592B0119040F215
:102640000040C5F602004FF40051012203F064F986
:10265000119840F28401C2F2004188426CD1FFE738
:1026600040F24E20C2F200400078D8BBFFE740F2B3
:102670007000C2F20040016801310160006868B179
:10268000FFE740F20000C2F20040028840F214016D
:10269000C2F20001086810440860FFE740F27000D1
:1026A000C2F20040006864281BD1FFE740F2140129
:1026B000C2F2000191ED000AB8EE400A9FEDD31A74
:1026C00080EE010A40F21000C2F2000080ED000A24
:1026D00040F24E22C2F20042012010700020086039
:1026E000FFE728E040F20000C2F20040018840F21B
:1026F0007400C2F20040016090ED000AB8EE400A9A
:1027000040F21000C2F2000090ED001A30EE410AD3
:102710009FEDBB1A80EE010A9FEDBA1A20EE010A66
:102720009FEDB91A20EE010A40F25020C2F200409B
:1027300080ED000AFFE7FFE740F24E20C2F20040C2
:102740000078012840F05181FFE740F25020C2F2AA
:102750000040016840F25420C2F200400790C1647A
:1027600008F096FE0798016D1091406D0F909DED59
:10277000101A9DED0F0A20EE000A01EE010A0BF07F
:1027800013FA8DED0E0A9DED100A9DED0E1A80EEE6
:10279000010A8DED0D0A9DED0F0A9DED0E1A80EEDA
:1027A000010A8DED0C0A9DED0D0A8DED0A0A40F22D
:1027B000AC20C2F20040089090ED000A0BF02CF91A
:1027C00008988DED090A9DED0C0A8DED0B0A90ED30
:1027D000000A0BF079F89DED092A9DED0A1AB0EE7A
:1027E000403A9DED0B0A20EE030A01EE420A40F248
:1027F0007C01C2F2000181ED040A0020C86040F2B1
:102800004C20C2F200400078012818D0FFE740F2C7
:102810004C20C2F200400078022810D0FFE740F2BE
:102820004C20C2F200400078032808D0FFE740F2B5
:102830004C20C2F20040007804280ED1FFE740F29D
:102840000400C2F2000090ED000A40F27C00C2F2E7
:102850000000012108F0B0FB0DE040F20400C2F2DC
:10286000000090ED000A40F27C00C2F2000000215E
:1028700008F0A2FBFFE740F27C00C2F2000090EDFE
:10288000081A40F20400C2F20000029090ED002A03
:1028900040F2AC20C2F20040019090ED000A01EE3F
:1028A000020A80ED000A90ED000A01200390DFED9E
:1028B000580ACDED040A0AF00BFF0199029A039819
:1028C000DDED040A81ED000A40F27801C2F2000158
:1028D000059191ED000A92ED001A9FED4E2A01EE4E
:1028E000020A81ED000A91ED000A0AF0F1FE059955
:1028F00081ED000A40F27000C2F200000022C4F232
:10290000401202600022426091ED000A40F2640130
:10291000C2F2000106910AF0E7FC069840F20801B5
:10292000C2F2000191ED000A40F27801C2F20041CA
:102930000AF04AFD40F24C20C2F200400078032821
:1029400008D0FFE740F24C20C2F200400078042893
:1029500039D1FFE740F27801C2F2004191ED000A5F
:1029600040F22C40C4F2010090ED001AB8EE411A7A
:1029700020EE010ABCEEC00A40F23442C4F2010269
:1029800082ED000A91ED010A90ED001AB8EE411AAD
:1029900020EE010ABCEEC00A40F23842C4F2010245
:1029A00082ED000A91ED020A90ED001AB8EE411A8C
:1029B00020EE010ABCEEC00A40F23C40C4F2010025
:1029C00080ED000A10E040F23441C4F20101002021
:1029D000086040F23841C4F20101086040F23C4115
:1029E000C4F201010860FFE7FFE740F20040C5F6CE
:1029F00002004FF40051002202F08EFF12B080BDA1
:102A000000FF7F4733335340977F87420000C8421F
:102A10000000000063149D4381B0009001B0704736
:102A200081B0009001B0704710B590B00E900020BA
:102A30008DF837000A900E9820B9FFE701208DF835
:102A40003F006EE20E98006940B1FFE70E9890F8E3
:102A50002000012801D1FFE7FFE7FFE70E98006E95
:102A600050B9FFE70E9800F063FA0E99002048660F
:102A70000E9981F85C00FFE70E98006807F0F8FCFB
:102A800028B1FFE70E98006807F08AFCFFE70E9870
:102A9000006807F00DFDE8B9FFE70E98006807F041
:102AA000A7FC40F20000C2F200000068800942F674
:102AB0006351C0F23E51A0FB0101012000EB9110D7
:102AC0000A90FFE70A9820B1FFE70A9801380A90B8
:102AD000F8E7FFE70E98006807F0EAFC70B9FFE737
:102AE0000E99086E40F0100008660E99486E40F08E
:102AF0000100486601208DF83700FFE70E98006856
:102B000007F0DEFC0B900E98006EC006002800F166
:102B1000FA81FFE70B98002840F0F581FFE70E9857
:102B2000006E40F0020020F480700E9908660E9846
:102B3000006807F0ADFC002870D1FFE70E9801682F
:102B4000012042F20002C4F20202914207900CD02E
:102B5000FFE70E9800684DF60071CBF6FD71084452
:102B6000B0FA80F040090790FFE70798C10746F2E6
:102B70000030C5F6020000291CBF42F20030C4F24A
:102B8000020042F20031C4F20201884212D1FFE792
:102B900042F20000C4F2020007F07AFC059042F213
:102BA0000010C4F2020007F073FC014605980843C8
:102BB000069007E046F20000C5F6020007F068FC48
:102BC0000690FFE7069840BBFFE70E9801680120DA
:102BD00042F20002C4F20202914204900CD0FFE7DC
:102BE0000E9800684DF60071CBF6FD710844B0FAFE
:102BF00080F040090490FFE70498C10746F20030D6
:102C0000C5F6020000291CBF42F20030C4F20200E7
:102C10000E99496807F054FDFFE7FFE70E9800683A
:102C200046F20001C5F6020188423AD1FFE70E9A4A
:102C3000517ED06B40EA41319068D26811430391D4
:102C4000082803D1FFE7002002901DE00E9880685D
:102C50000C2803D1FFE70420019012E00E98806851
:102C60001C2803D1FFE70820009007E00E98816838
:102C70000020182908BF1C200090FFE70098019051
:102C8000FFE701980290FFE70398029901F00C0119
:102C900040EA41000E9991F8201040EA01400C9062
:102CA0000CE00E994A7EC86B40EA42308A681043B5
:102CB00091F8201040EA01400C90FFE70E9890F840
:102CC000200001280BD1FFE70E98416A0020CFF6C3
:102CD000FE7000EB41410C9808430C90FFE70E9802
:102CE000806A50B1FFE70E99886AC96A00F478706B
:102CF00001430C9808430C90FFE70E98006846F2D9
:102D00000001C5F60201884218D1FFE70E9800685D
:102D1000C06844F20701CFF6F07108400C990843EF
:102D20000E990968C8600E980068006920F040603C
:102D30000E9A1168526B104308610DE00E980068FE
:102D4000C0684CF20301CFF6F07108400C990843BB
:102D50000E990968C860FFE70E98006807F0B0FB9D
:102D600009900E98006807F073FB089009980028F6
:102D700040F0A880FFE70898002840F0A380FFE714
:102D80000E98006846F20001C5F60201884209D19A
:102D9000FFE70E99087E91F83810800340EA410061
:102DA0000C9006E00E98017E006B40EA81300C909A
:102DB000FFE70E980068C06844F2030188430C994D
:102DC00008430E990968C8600E9890F844000128DD
:102DD00059D1FFE70E98006846F20001C5F60201DE
:102DE000884201D1FFE700E0FFE70E98806A20B13A
:102DF000FFE70E98C06A08B9FFE7FFE70E98006882
:102E000046F20001C5F6020188421BD1FFE70E9889
:102E1000006800694FF61E01CFF6004100EA01028A
:102E20000E9B1968986CD3F84CE0D3F850C040EA78
:102E30000E0040EA0C005B6D1843104340F00100A7
:102E400008611FE00E98006800694FF61E01CFF67A
:102E5000004100EA01020E9B19689C6CD3F84CE01B
:102E6000D3F850C00020CFF6FF7000EB044040EADA
:102E70000E0040EA0C005B6D1843104340F0010067
:102E80000861FFE706E00E980168086920F001007C
:102E90000861FFE70E980068006920F070400E9A04
:102EA0001168126C104308610E98006846F2000128
:102EB000C5F60201884204D0FFE70E98FDF768FBD3
:102EC000FFE7FFE70E98006901280CD1FFE70E9895
:102ED0000068006B20F00F000E9A1168D269013A69
:102EE0001043086306E00E980168086B20F00F009D
:102EF0000863FFE70E98006E40F0010020F002002A
:102F00000E99086608E00E99086E40F010000866F9
:102F100001208DF83700FFE79DF837008DF83F005E
:102F2000FFE79DF83F0010B010BD0000000000005A
:102F300080B5BEB03D9000203C903B903A903990D7
:102F400038900AA8B821FDF7ADFA3D98006842F222
:102F50000001C4F20201884240F0AE80FFE7002089
:102F60000B904FF400210A9102210C9110220D9236
:102F70000E910F911091C0211191129013903290E7
:102F80000AA804F005F818B1FFE7FEF7E1FAFFE739
:102F9000FFE744F2D840C5F60200016841F0200185
:102FA0000160006800F0200009900998FFE7FFE742
:102FB00044F2E040C5F60200016841F004010160FE
:102FC000006800F0040008900898FFE7FFE744F26B
:102FD000E040C5F60200016841F0010101600068AF
:102FE00000F0010007900798FFE7FFE744F2E04098
:102FF000C5F60200016841F020010160006800F0A0
:10300000200006900698FFE71120389003200190D9
:103010003990002004903A9040F60000C5F6020076
:1030200038A9029102F0A4FA019A02990498402367
:10303000389339923A900020C5F6020002F098FACF
:10304000019A029904984FF40063039338933992DC
:103050003A9041F20040C5F6020002F089FA039A64
:10306000049940F2F400C2F2004005901023C4F22B
:1030700002030360092343608160C1604FF48063F1
:10308000036142614FF4005282614FF48072C26169
:103090000162416201F0FCF918B1FFE7FEF758FA4E
:1030A000FFE7FFE73D9840F2F401C2F2004181657D
:1030B0003D988863FFE7FFE73EB080BD0000000059
:1030C00080B588B0069005910492069801680120A9
:1030D00042F20002C4F20202914201900CD0FFE7DA
:1030E000069800684DF60071CBF6FD710844B0FA01
:1030F00080F040090190FFE70198C10746F20030D7
:10310000C5F6020000291CBF42F20030C4F20200E2
:1031100007F086F902900698006807F0D1F90028B8
:1031200040F0C680FFE7FFE7069890F85C000128B2
:1031300004D1FFE702208DF81F00C2E006990120AC
:1031400081F85C00FFE7FFE7029848B1FFE70298CB
:10315000052805D0FFE70298092840F09E80FFE788
:103160000698FDF7F9FB8DF80F009DF80F00002879
:1031700040F08B80FFE70698006E40F4807040F6C8
:1031800001618843069908660698006842F20011BA
:10319000C4F20201884206D1FFE742F20000C4F205
:1031A0000200009003E0069800680090FFE7009896
:1031B00006990968884203D0FFE7029830B9FFE713
:1031C0000699086E20F480100866FFE70698006EE6
:1031D000C004002806D5FFE70699486E20F00600D7
:1031E000486603E0069900204866FFE70698816D6F
:1031F00040F27170C0F60000C8630698816D40F619
:103200007900C0F6000008640698816D40F6490018
:10321000C0F60000C864069801681C200860FFE73B
:103220000699002081F85C00FFE70698016848686D
:1032300040F0100048600698006846F20001C5F6AC
:10324000020188420CD1FFE70699086891F838100E
:10325000490007F051F90698006807F0BDF805E04D
:1032600006990868096B07F05FF9FFE7069801689F
:10327000806D4031059A049B01F0BEFD8DF80F0072
:103280000698006807F080F906E0FFE7069900203D
:1032900081F85C00FFE7FFE709E001208DF80F00EF
:1032A000FFE70699002081F85C00FFE7FFE703E0F5
:1032B00002208DF80F00FFE79DF80F008DF81F002A
:1032C000FFE79DF81F0008B080BD0000000000006F
:1032D00080B590B00F9000200B9040F20000C2F239
:1032E0000000006848F2B511C1F64E31A0FB011094
:1032F000800A0A900F98806D09900F98806D089051
:10330000099800680E90089800680D900F98016861
:1033100001201022C4F202029142079000F0A38023
:10332000FFE70F98016801202822C4F202029142AF
:10333000079000F09880FFE70F9801680120402275
:10334000C4F202029142079000F08D80FFE70F98CF
:10335000016801205822C4F202029142079000F055
:103360008280FFE70F98016801207022C4F20202F8
:103370009142079077D0FFE70F98016801208822DB
:10338000C4F20202914207906DD0FFE70F980168E6
:103390000120A022C4F202029142079063D0FFE70D
:1033A0000F9801680120B822C4F2020291420790EE
:1033B00059D0FFE70F980168012040F21042C4F293
:1033C0000202914207904ED0FFE70F98016801205A
:1033D00040F22842C4F202029142079043D0FFE734
:1033E0000F980168012040F24042C4F2020291426B
:1033F000079038D0FFE70F980168012040F258424B
:10340000C4F20202914207902DD0FFE70F980168A5
:10341000012040F27042C4F202029142079022D091
:10342000FFE70F980168012040F28842C4F20202CF
:103430009142079017D0FFE70F980168012040F2F2
:10344000A042C4F20202914207900CD0FFE70F980D
:1034500000684FF64831CBF6FD710844B0FA80F0B1
:1034600040090790FFE70798C007002800F0138580
:10347000FFE70E980F99C96D01F01F01C8400007C2
:10348000002840F1B080FFE70F9800681021C4F2D7
:103490000201884200F08180FFE70F980068282130
:1034A000C4F20201884278D0FFE70F9800684021FB
:1034B000C4F20201884270D0FFE70F9800685821DB
:1034C000C4F20201884268D0FFE70F9800687021BB
:1034D000C4F20201884260D0FFE70F98006888219B
:1034E000C4F20201884258D0FFE70F980068A0217B
:1034F000C4F20201884250D0FFE70F980068B8215B
:10350000C4F20201884248D0FFE70F98006840F2F9
:103510001041C4F2020188423FD0FFE70F980068D3
:1035200040F22841C4F20201884236D0FFE70F98EA
:10353000006840F24041C4F2020188422DD0FFE70A
:103540000F98006840F25841C4F20201884224D02A
:10355000FFE70F98006840F27041C4F20201884210
:103560001BD0FFE70F98006840F28841C4F20201C7
:10357000884212D0FFE70F98006840F2A041C4F2E1
:103580000201884209D0FFE70F98006840F2B84175
:10359000C4F20201884207D1FFE70F980068006873
:1035A00000F00400069006E00F980068006800F044
:1035B00008000690FFE70698A0B1FFE70F980168A2
:1035C000086820F0040008600F98C06D00F01F012B
:1035D00008208840099988600F99486D40F00100E3
:1035E0004865FFE7FFE70E980F99C96D01F01F01CD
:1035F000C840C007002800F0A980FFE70F980068C6
:103600001021C4F20201884200F08180FFE70F9888
:1036100000682821C4F20201884278D0FFE70F98A1
:1036200000684021C4F20201884270D0FFE70F9881
:1036300000685821C4F20201884268D0FFE70F9861
:1036400000687021C4F20201884260D0FFE70F9841
:1036500000688821C4F20201884258D0FFE70F9821
:103660000068A021C4F20201884250D0FFE70F9801
:103670000068B821C4F20201884248D0FFE70F98E1
:10368000006840F21041C4F2020188423FD0FFE7D7
:103690000F98006840F22841C4F20201884236D0F7
:1036A000FFE70F98006840F24041C4F202018842EF
:1036B0002DD0FFE70F98006840F25841C4F2020194
:1036C000884224D0FFE70F98006840F27041C4F2AE
:1036D000020188421BD0FFE70F98006840F2884142
:1036E000C4F20201884212D0FFE70F98006840F24E
:1036F000A041C4F20201884209D0FFE70F98006898
:1037000040F2B841C4F20201884207D1FFE70F98A6
:103710000068406900F08000059005E00F9800689F
:10372000006800200590FFE7059870B1FFE70F984B
:10373000C06D00F01F0101208840099988600F9931
:10374000486D40F002004865FFE7FFE70E980F99CB
:10375000C96D01F01F01C8404007002840F1A98051
:10376000FFE70F9800681021C4F20201884200F0C0
:103770008180FFE70F9800682821C4F20201884287
:1037800078D0FFE70F9800684021C4F20201884218
:1037900070D0FFE70F9800685821C4F202018842F8
:1037A00068D0FFE70F9800687021C4F202018842D8
:1037B00060D0FFE70F9800688821C4F202018842B8
:1037C00058D0FFE70F980068A021C4F20201884298
:1037D00050D0FFE70F980068B821C4F20201884278
:1037E00048D0FFE70F98006840F21041C4F2020190
:1037F00088423FD0FFE70F98006840F22841C4F2AA
:103800000201884236D0FFE70F98006840F240413D
:10381000C4F2020188422DD0FFE70F98006840F201
:103820005841C4F20201884224D0FFE70F98006893
:1038300040F27041C4F2020188421BD0FFE70F98AA
:10384000006840F28841C4F20201884212D0FFE7CA
:103850000F98006840F2A041C4F20201884209D0EA
:10386000FFE70F98006840F2B841C4F202018842B5
:1038700007D1FFE70F980068006800F0020004908D
:1038800005E00F980068006800200490FFE70498A6
:1038900070B1FFE70F98C06D00F01F010420884051
:1038A000099988600F99486D40F004004865FFE76A
:1038B000FFE70E980F99C96D01F01F01C840C006BF
:1038C000002840F1DE80FFE70F9800681021C4F265
:1038D0000201884200F08180FFE70F9800682821EC
:1038E000C4F20201884278D0FFE70F9800684021B7
:1038F000C4F20201884270D0FFE70F980068582197
:10390000C4F20201884268D0FFE70F980068702176
:10391000C4F20201884260D0FFE70F980068882156
:10392000C4F20201884258D0FFE70F980068A02136
:10393000C4F20201884250D0FFE70F980068B82116
:10394000C4F20201884248D0FFE70F98006840F2B5
:103950001041C4F2020188423FD0FFE70F9800688F
:1039600040F22841C4F20201884236D0FFE70F98A6
:10397000006840F24041C4F2020188422DD0FFE7C6
:103980000F98006840F25841C4F20201884224D0E6
:10399000FFE70F98006840F27041C4F202018842CC
:1039A0001BD0FFE70F98006840F28841C4F2020183
:1039B000884212D0FFE70F98006840F2A041C4F29D
:1039C0000201884209D0FFE70F98006840F2B84131
:1039D000C4F20201884207D1FFE70F98006800682F
:1039E00000F00800039006E00F980068006800F0FF
:1039F00004000390FFE70398002841D0FFE70F98E9
:103A0000C06D00F01F0110208840099988600F9850
:103A100000680068400300281AD5FFE70F98006887
:103A200000680003002809D4FFE70F98006C20B15C
:103A3000FFE70F98016C8847FFE708E00F98806C5C
:103A400020B1FFE70F98816C8847FFE7FFE716E09A
:103A50000F9800680068C005002807D4FFE70F989A
:103A60000168086820F008000860FFE70F98006C04
:103A700020B1FFE70F98016C8847FFE7FFE7FFE7FA
:103A8000FFE70E980F99C96D01F01F01C84080062D
:103A9000002840F12681FFE70F9800681021C4F24A
:103AA0000201884200F08180FFE70F98006828211A
:103AB000C4F20201884278D0FFE70F9800684021E5
:103AC000C4F20201884270D0FFE70F9800685821C5
:103AD000C4F20201884268D0FFE70F9800687021A5
:103AE000C4F20201884260D0FFE70F980068882185
:103AF000C4F20201884258D0FFE70F980068A02165
:103B0000C4F20201884250D0FFE70F980068B82144
:103B1000C4F20201884248D0FFE70F98006840F2E3
:103B20001041C4F2020188423FD0FFE70F980068BD
:103B300040F22841C4F20201884236D0FFE70F98D4
:103B4000006840F24041C4F2020188422DD0FFE7F4
:103B50000F98006840F25841C4F20201884224D014
:103B6000FFE70F98006840F27041C4F202018842FA
:103B70001BD0FFE70F98006840F28841C4F20201B1
:103B8000884212D0FFE70F98006840F2A041C4F2CB
:103B90000201884209D0FFE70F98006840F2B8415F
:103BA000C4F20201884207D1FFE70F98006800685D
:103BB00000F01000029006E00F980068006800F026
:103BC00002000290FFE70298002800F08980FFE7DA
:103BD0000F98C06D00F01F0120208840099988606F
:103BE0000F9890F83500042837D1FFE70F98016847
:103BF000086820F0160008600F980168486920F0F6
:103C0000800048610F98006C20B9FFE70F98806C26
:103C100038B1FFE70F980168086820F008000860D5
:103C2000FFE70F98C06D00F01F013F208840099901
:103C300088600F99012081F83500FFE70F99002077
:103C400081F83400FFE70F98006D20B1FFE70F986F
:103C5000016D8847FFE700F019BC0F980068006805
:103C6000400300281AD5FFE70F980068006800039A
:103C7000002809D4FFE70F98406C20B1FFE70F98A8
:103C8000416C8847FFE708E00F98C06B20B1FFE761
:103C90000F98C16B8847FFE7FFE720E00F980068A7
:103CA0000068C005002811D4FFE70F980168086874
:103CB00020F0100008600F99012081F83500FFE71F
:103CC0000F99002081F83400FFE7FFE70F98C06BE1
:103CD00020B1FFE70F98C16B8847FFE7FFE7FFE7D9
:103CE000FFE70F98406D002800F0D480FFE70F98A1
:103CF000406DC007002800F0C480FFE70F99042042
:103D000081F835000F9800681021C4F20201884242
:103D100000F08180FFE70F9800682821C4F20201BB
:103D2000884278D0FFE70F9800684021C4F2020172
:103D3000884270D0FFE70F9800685821C4F2020152
:103D4000884268D0FFE70F9800687021C4F2020132
:103D5000884260D0FFE70F9800688821C4F2020112
:103D6000884258D0FFE70F980068A021C4F20201F2
:103D7000884250D0FFE70F980068B821C4F20201D2
:103D8000884248D0FFE70F98006840F21041C4F223
:103D9000020188423FD0FFE70F98006840F22841B7
:103DA000C4F20201884236D0FFE70F98006840F263
:103DB0004041C4F2020188422DD0FFE70F9800680D
:103DC00040F25841C4F20201884224D0FFE70F9824
:103DD000006840F27041C4F2020188421BD0FFE744
:103DE0000F98006840F28841C4F20201884212D064
:103DF000FFE70F98006840F2A041C4F20201884238
:103E000009D0FFE70F98006840F2B841C4F2020100
:103E1000884207D1FFE70F980168086820F0010089
:103E2000086006E00F980168086820F0010008604B
:103E3000FFE7FFE70B9801300B900A99884201D900
:103E4000FFE707E0FFE70F9800680068C007002859
:103E5000F0D1FFE70F9800680068C00728B1FFE7BE
:103E60000F99032081F8350004E00F99012081F8B3
:103E70003500FFE7FFE70F99002081F83400FFE7E6
:103E8000FFE70F98C06C20B1FFE70F98C16C88471F
:103E9000FFE7FFE7FAE20F980168012045F20842C8
:103EA000C5F60202914201904ED0FFE70F980168DB
:103EB000012045F21C42C5F602029142019043D016
:103EC000FFE70F980168012045F23042C5F6020273
:103ED0009142019038D0FFE70F980168012045F228
:103EE0004442C5F60202914201902DD0FFE70F989F
:103EF0000168012045F25842C5F602029142019044
:103F000022D0FFE70F980168012045F26C42C5F608
:103F100002029142019017D0FFE70F98016801203B
:103F200045F28042C5F60202914201900CD0FFE7B3
:103F30000F9800684AF66C31CAF2FD710844B0FA75
:103F400080F040090190FFE70198C007002800F0C9
:103F50009B82FFE70F98006800680C900D980F99FE
:103F6000C96D01F01F01C8404007002840F1D7800B
:103F7000FFE79DF830004007002840F1D080FFE7C0
:103F80000F98C06D00F01F01042088400899486018
:103F90009DF831000006002818D5FFE79DF8320093
:103FA000C00748B9FFE70F98806C20B1FFE70F9872
:103FB000816C8847FFE708E00F98006C20B1FFE7AD
:103FC0000F98016C8847FFE7FFE7A7E09DF83000F6
:103FD0008006002800F19980FFE70F980068102103
:103FE000C4F20201884200F08180FFE70F98006868
:103FF0002821C4F20201884278D0FFE70F980068B8
:104000004021C4F20201884270D0FFE70F98006897
:104010005821C4F20201884268D0FFE70F98006877
:104020007021C4F20201884260D0FFE70F98006857
:104030008821C4F20201884258D0FFE70F98006837
:10404000A021C4F20201884250D0FFE70F98006817
:10405000B821C4F20201884248D0FFE70F980068F7
:1040600040F21041C4F2020188423FD0FFE70F98AE
:10407000006840F22841C4F20201884236D0FFE7CE
:104080000F98006840F24041C4F2020188422DD0EE
:10409000FFE70F98006840F25841C4F202018842DD
:1040A00024D0FFE70F98006840F27041C4F202018B
:1040B00088421BD0FFE70F98006840F28841C4F2A5
:1040C0000201884212D0FFE70F98006840F2A04139
:1040D000C4F20201884209D0FFE70F98006840F25D
:1040E000B841C4F20201884207D1FFE70F98016886
:1040F000086820F00800086006E00F98016808686A
:1041000020F004000860FFE7FFE70F98006C20B183
:10411000FFE70F98016C8847FFE7FFE7B3E10D98D1
:104120000F99C96D01F01F01C8408007002840F1B8
:10413000E180FFE79DF830008007002840F1DA8039
:10414000FFE70F98C06D00F01F010220884008991A
:1041500048609DF831000006002818D5FFE79DF85B
:104160003200C00748B9FFE70F98406C20B1FFE765
:104170000F98416C8847FFE708E00F98C06B20B1AB
:10418000FFE70F98C16B8847FFE7FFE7B1E09DF8B5
:1041900030008006002800F1A380FFE70F98006838
:1041A0001021C4F20201884200F08180FFE70F98DD
:1041B00000682821C4F20201884278D0FFE70F98F6
:1041C00000684021C4F20201884270D0FFE70F98D6
:1041D00000685821C4F20201884268D0FFE70F98B6
:1041E00000687021C4F20201884260D0FFE70F9896
:1041F00000688821C4F20201884258D0FFE70F9876
:104200000068A021C4F20201884250D0FFE70F9855
:104210000068B821C4F20201884248D0FFE70F9835
:10422000006840F21041C4F2020188423FD0FFE72B
:104230000F98006840F22841C4F20201884236D04B
:10424000FFE70F98006840F24041C4F20201884243
:104250002DD0FFE70F98006840F25841C4F20201E8
:10426000884224D0FFE70F98006840F27041C4F202
:10427000020188421BD0FFE70F98006840F2884196
:10428000C4F20201884212D0FFE70F98006840F2A2
:10429000A041C4F20201884209D0FFE70F980068EC
:1042A00040F2B841C4F20201884207D1FFE70F98FB
:1042B0000168086820F01400086006E00F980168A3
:1042C000086820F00A000860FFE70F99012081F8D4
:1042D0003500FFE70F99002081F83400FFE7FFE782
:1042E0000F98C06B20B1FFE70F98C16B8847FFE7BD
:1042F000FFE7C7E00D980F99C96D01F01F01C84095
:104300000007002840F1BC80FFE79DF8300000075F
:10431000002840F1B580FFE70F9800681021C4F233
:104320000201884200F08180FFE70F980068282191
:10433000C4F20201884278D0FFE70F98006840215C
:10434000C4F20201884270D0FFE70F98006858213C
:10435000C4F20201884268D0FFE70F98006870211C
:10436000C4F20201884260D0FFE70F9800688821FC
:10437000C4F20201884258D0FFE70F980068A021DC
:10438000C4F20201884250D0FFE70F980068B821BC
:10439000C4F20201884248D0FFE70F98006840F25B
:1043A0001041C4F2020188423FD0FFE70F98006835
:1043B00040F22841C4F20201884236D0FFE70F984C
:1043C000006840F24041C4F2020188422DD0FFE76C
:1043D0000F98006840F25841C4F20201884224D08C
:1043E000FFE70F98006840F27041C4F20201884272
:1043F0001BD0FFE70F98006840F28841C4F2020129
:10440000884212D0FFE70F98006840F2A041C4F242
:104410000201884209D0FFE70F98006840F2B841D6
:10442000C4F20201884207D1FFE70F9801680868CB
:1044300020F01C00086006E00F980168086820F072
:104440000E000860FFE70F98C06D00F01F0101200B
:1044500000FA01F1089A51600F9948650F9981F8A7
:104460003500FFE70F99002081F83400FFE70F982F
:10447000C06C20B1FFE70F98C16C8847FFE700E0F0
:10448000FFE7FFE7FFE700E0FFE7FFE710B080BDD1
:1044900080B58EB00C9001F057FA0A900C9828B9AC
:1044A000FFE701208DF8370000F09FBC0C980168F1
:1044B00001201022C4F202029142079000F0A38072
:1044C000FFE70C98016801202822C4F20202914201
:1044D000079000F09880FFE70C98016801204022C7
:1044E000C4F202029142079000F08D80FFE70C9821
:1044F000016801205822C4F202029142079000F0A4
:104500008280FFE70C98016801207022C4F2020249
:104510009142079077D0FFE70C980168012088222C
:10452000C4F20202914207906DD0FFE70C98016837
:104530000120A022C4F202029142079063D0FFE75B
:104540000C9801680120B822C4F20202914207903F
:1045500059D0FFE70C980168012040F21042C4F2E4
:104560000202914207904ED0FFE70C9801680120AB
:1045700040F22842C4F202029142079043D0FFE782
:104580000C980168012040F24042C4F202029142BC
:10459000079038D0FFE70C980168012040F258429C
:1045A000C4F20202914207902DD0FFE70C980168F7
:1045B000012040F27042C4F202029142079022D0E0
:1045C000FFE70C980168012040F28842C4F2020221
:1045D0009142079017D0FFE70C980168012040F244
:1045E000A042C4F20202914207900CD0FFE70C985F
:1045F00000684FF64831CBF6FD710844B0FA80F000
:1046000040090790FFE70798C007002800F078816D
:10461000FFE70C98406A08B1FFE7FFE70C9902201A
:1046200081F83500FFE70C99002081F83400FFE79E
:104630000C9800681021C4F20201884200F08180C9
:10464000FFE70C9800682821C4F20201884278D064
:10465000FFE70C9800684021C4F20201884270D044
:10466000FFE70C9800685821C4F20201884268D024
:10467000FFE70C9800687021C4F20201884260D004
:10468000FFE70C9800688821C4F20201884258D0E4
:10469000FFE70C980068A021C4F20201884250D0C4
:1046A000FFE70C980068B821C4F20201884248D0A4
:1046B000FFE70C98006840F21041C4F20201884202
:1046C0003FD0FFE70C98006840F22841C4F2020195
:1046D000884236D0FFE70C98006840F24041C4F2AF
:1046E000020188422DD0FFE70C98006840F2584143
:1046F000C4F20201884224D0FFE70C98006840F21F
:104700007041C4F2020188421BD0FFE70C98006898
:1047100040F28841C4F20201884212D0FFE70C98AF
:10472000006840F2A041C4F20201884209D0FFE7CC
:104730000C98006840F2B841C4F20201884207D1E7
:10474000FFE70C980168086820F00100086006E0A7
:104750000C980168086820F001000860FFE7FFE797
:104760000C9800680068C00798B1FFE701F0ECF80A
:104770000A99401A06280BD3FFE70C9920204865B8
:104780000C99032081F8350001208DF837002CE3C7
:10479000E6E70C98006800680B900B9848F23F0120
:1047A000CFF6106108400B900C998868D1F80CC0C6
:1047B0000B694A6940EA0C00184310438A691043A8
:1047C000CA691043096A01430B9808430B900C987F
:1047D000406A042808D1FFE70C99C86A096B0143B5
:1047E0000B9808430B90FFE70C984068292807D3E3
:1047F000FFE70C98416801202F29069036D3FFE788
:104800000C9840683F2807D3FFE70C9841680120C7
:10481000432906902AD3FFE70C984068472807D31E
:10482000FFE70C9841680120492906901ED3FFE755
:104830000C9840684F2807D3FFE70C984168012087
:104840005329069012D3FFE70C9841680020742981
:10485000059008D3FFE70C9841680020782938BFFD
:1048600001200590FFE705980690FFE70698C0072E
:1048700028B1FFE70B9840F480100B90FFE70B98EE
:104880000C99096808600C98006840690B900B98B7
:1048900020F007000B900C98416A0B9808430B908E
:1048A0000C98406A04281AD1FFE70C98816A0B988B
:1048B00008430B900C98C06A80B1FFE70C98FCF796
:1048C00037FB50B1FFE70C99402048650C99012057
:1048D00081F835008DF8370087E2FFE7FFE70B9896
:1048E0000C99096848610C98FCF7E6F809900C9857
:1048F000C06D00F01F013F2088400999886027E1C2
:104900000C980168012045F20842C5F60202914266
:1049100004904ED0FFE70C980168012045F21C423C
:10492000C5F602029142049043D0FFE70C9801685B
:10493000012045F23042C5F602029142049038D07F
:10494000FFE70C980168012045F24442C5F60202D7
:10495000914204902DD0FFE70C980168012045F2A8
:104960005842C5F602029142049022D0FFE70C980B
:104970000168012045F26C42C5F6020291420490A2
:1049800017D0FFE70C980168012045F28042C5F678
:104990000202914204900CD0FFE70C9800684AF69E
:1049A0006C31CAF2FD710844B0FA80F040090490FD
:1049B000FFE70498C007002800F0BE80FFE70C98CE
:1049C0000168012045F20842C5F6020291420390B7
:1049D0004ED0FFE70C980168012045F21C42C5F655
:1049E00002029142039043D0FFE70C980168012036
:1049F00045F23042C5F602029142039038D0FFE7FB
:104A00000C980168012045F24442C5F60202914229
:104A100003902DD0FFE70C980168012045F2584221
:104A2000C5F602029142039022D0FFE70C9801687C
:104A3000012045F26C42C5F602029142039017D064
:104A4000FFE70C980168012045F28042C5F602029A
:104A5000914203900CD0FFE70C9800684AF66C3145
:104A6000CAF2FD710844B0FA80F040090390FFE7F4
:104A70000398C00708B1FFE7FFE70C99022081F80F
:104A80003500FFE70C99002081F83400FFE70C980F
:104A9000006800680B900B986FF310100B900C9847
:104AA0008068402803D1FFE71020029008E00C98AE
:104AB00080688038B0FA80F0400980030290FFE7F8
:104AC00002980C99D1F80CE0D1F810C04B698A69B2
:104AD00040EADE0040EADC0040EAD30040EAD200CF
:104AE000CA6940EAD200096A40EA11110B980843EA
:104AF0000B900B980C99096808600C9908684AF6A5
:104B0000F832CAF2FD7210444CF6CD42CCF6CC42DB
:104B1000A0FB02026FF0030000EA9200C8650C9847
:104B2000FBF7CAFF08900C98C06D00F01F01012030
:104B30008840089948600AE00C99402048650C9923
:104B4000032081F8350001208DF837004DE1FFE7A3
:104B50000C98016801201022C4F2020291420190D7
:104B600000F00381FFE70C98016801202822C4F2BD
:104B700002029142019000F0F880FFE70C98016872
:104B800001204022C4F202029142019000F0ED8027
:104B9000FFE70C98016801205822C4F202029142FA
:104BA000019000F0E280FFE70C980168012070227C
:104BB000C4F202029142019000F0D780FFE70C9806
:104BC000016801208822C4F202029142019000F0A3
:104BD000CC80FFE70C9801680120A022C4F20202F9
:104BE0009142019000F0C180FFE70C98016801201C
:104BF000B822C4F202029142019000F0B680FFE7B1
:104C00000C980168012040F21042C4F20202914265
:104C1000019000F0AA80FFE70C980168012040F2A3
:104C20002842C4F202029142019000F09E80FFE708
:104C30000C980168012040F24042C4F20202914205
:104C4000019000F09280FFE70C980168012040F28B
:104C50005842C4F202029142019000F08680FFE7C0
:104C60000C980168012040F27042C4F202029142A5
:104C700001907AD0FFE70C980168012040F2884249
:104C8000C4F20202914201906FD0FFE70C980168D4
:104C9000012040F2A042C4F202029142019064D08D
:104CA000FFE70C980168012040F2B842C4F202020A
:104CB0009142019059D0FFE70C980168012045F21C
:104CC0000842C5F60202914201904ED0FFE70C98CF
:104CD0000168012045F21C42C5F602029142019092
:104CE00043D0FFE70C980168012045F23042C5F639
:104CF00002029142019038D0FFE70C980168012030
:104D000045F24442C5F60202914201902DD0FFE7E0
:104D10000C980168012045F25842C5F60202914202
:104D2000019022D0FFE70C980168012045F26C4207
:104D3000C5F602029142019017D0FFE70C98016876
:104D4000012045F28042C5F60202914201900CD04A
:104D5000FFE70C9800684AF66C31CAF2FD7108440E
:104D6000B0FA80F040090190FFE70198C00790B3C6
:104D7000FFE70C98FBF788FF0C988068802804D127
:104D8000FFE70C9900204860FFE70C990879096E4D
:104D900008600C98416E806E48600C98406888B13D
:104DA000FFE70C98406808280CD8FFE70C98FCF740
:104DB00027F80C98C16E002008600C98016F406FB6
:104DC000486007E00C990020C8660C9908670C99A8
:104DD0004867FFE7FFE70C99002048650C9A01211E
:104DE00082F835108DF83700FFE79DF837000EB0D8
:104DF00080BD00000000000080B588B006900591DD
:104E00000492039300208DF80B00069820B9FFE769
:104E100001208DF81F006CE3FFE7069890F834003E
:104E2000012804D1FFE702208DF81F0061E30699F5
:104E3000012081F83400FFE7FFE7069890F835007D
:104E4000012840F04383FFE70699022081F83500EE
:104E5000069900204865069800681021C4F20201F6
:104E6000884200F08180FFE7069800682821C4F29C
:104E70000201884278D0FFE7069800684021C4F21A
:104E80000201884270D0FFE7069800685821C4F2FA
:104E90000201884268D0FFE7069800687021C4F2DA
:104EA0000201884260D0FFE7069800688821C4F2BA
:104EB0000201884258D0FFE706980068A021C4F29A
:104EC0000201884250D0FFE706980068B821C4F27A
:104ED0000201884248D0FFE70698006840F210417E
:104EE000C4F2020188423FD0FFE70698006840F212
:104EF0002841C4F20201884236D0FFE706980068D4
:104F000040F24041C4F2020188422DD0FFE70698EA
:104F1000006840F25841C4F20201884224D0FFE701
:104F20000698006840F27041C4F2020188421BD02A
:104F3000FFE70698006840F28841C4F20201884207
:104F400012D0FFE70698006840F2A041C4F20201C7
:104F5000884209D0FFE70698006840F2B841C4F2E1
:104F60000201884207D1FFE706980168086820F02F
:104F70000100086006E006980168086820F001005A
:104F80000860FFE706980599049A039BFCF748F828
:104F90000698016801201022C4F202029142019099
:104FA00000F0A380FFE70698016801202822C4F2E0
:104FB00002029142019000F09880FFE70698016894
:104FC00001204022C4F202029142019000F08D8043
:104FD000FFE70698016801205822C4F202029142BC
:104FE000019000F08280FFE706980168012070229E
:104FF000C4F202029142019077D0FFE7069801685F
:1050000001208822C4F20202914201906DD0FFE794
:10501000069801680120A022C4F202029142019088
:1050200063D0FFE7069801680120B822C4F20202AB
:105030009142019059D0FFE706980168012040F2A3
:105040001042C4F20202914201904ED0FFE706984E
:105050000168012040F22842C4F20202914201900C
:1050600043D0FFE706980168012040F24042C4F2B5
:1050700002029142019038D0FFE7069801680120B2
:1050800040F25842C4F20202914201902DD0FFE753
:1050900006980168012040F27042C4F20202914277
:1050A000019022D0FFE706980168012040F2884273
:1050B000C4F202029142019017D0FFE706980168FE
:1050C000012040F2A042C4F20202914201900CD0B1
:1050D000FFE7069800684FF64831CBF6FD710844AB
:1050E000B0FA80F040090190FFE70198C007A8B12D
:1050F000FFE70698006800680B2161F344000699F9
:10510000096808600698006C38B1FFE706980168E6
:10511000086840F008000860FFE714E0069800689F
:105120000068052161F34300069909680860069844
:10513000006C38B1FFE706980168086840F0040089
:105140000860FFE7FFE70698016801201022C4F21B
:1051500002029142009000F00381FFE70698016887
:1051600001202822C4F202029142009000F0F8804F
:10517000FFE70698016801204022C4F20202914232
:10518000009000F0ED80FFE70698016801205822AA
:10519000C4F202029142009000F0E280FFE706981C
:1051A000016801207022C4F202029142009000F0D6
:1051B000D780FFE70698016801208822C4F2020226
:1051C0009142009000F0CC80FFE706980168012032
:1051D000A022C4F202029142009000F0C180FFE7D9
:1051E000069801680120B822C4F2020291420090A0
:1051F00000F0B680FFE706980168012040F21042F7
:10520000C4F202029142009000F0AA80FFE70698E3
:105210000168012040F22842C4F20202914200904B
:1052200000F09E80FFE706980168012040F24042AE
:10523000C4F202029142009000F09280FFE70698CB
:105240000168012040F25842C4F2020291420090EB
:1052500000F08680FFE706980168012040F2704266
:10526000C4F20202914200907AD0FFE706980168EA
:10527000012040F28842C4F20202914200906FD0B5
:10528000FFE706980168012040F2A042C4F2020242
:105290009142009064D0FFE706980168012040F237
:1052A000B842C4F202029142009059D0FFE706983A
:1052B0000168012045F20842C5F6020291420090C1
:1052C0004ED0FFE706980168012045F21C42C5F662
:1052D00002029142009043D0FFE706980168012046
:1052E00045F23042C5F602029142009038D0FFE705
:1052F00006980168012045F24442C5F60202914237
:1053000000902DD0FFE706980168012045F2584231
:10531000C5F602029142009022D0FFE7069801688C
:10532000012045F26C42C5F602029142009017D06E
:10533000FFE706980168012045F28042C5F60202A7
:10534000914200900CD0FFE7069800684AF66C3155
:10535000CAF2FD710844B0FA80F040090090FFE7FE
:105360000098C007D0B1FFE70698006E0068C00340
:10537000002807D5FFE70698016E086840F48070A2
:105380000860FFE70698C06E38B1FFE70698C16E67
:10539000086840F480700860FFE7FFE7069800683F
:1053A0001021C4F20201884200F08180FFE70698D4
:1053B00000682821C4F20201884278D0FFE70698ED
:1053C00000684021C4F20201884270D0FFE70698CD
:1053D00000685821C4F20201884268D0FFE70698AD
:1053E00000687021C4F20201884260D0FFE706988D
:1053F00000688821C4F20201884258D0FFE706986D
:105400000068A021C4F20201884250D0FFE706984C
:105410000068B821C4F20201884248D0FFE706982C
:10542000006840F21041C4F2020188423FD0FFE719
:105430000698006840F22841C4F20201884236D042
:10544000FFE70698006840F24041C4F2020188423A
:105450002DD0FFE70698006840F25841C4F20201DF
:10546000884224D0FFE70698006840F27041C4F2F9
:10547000020188421BD0FFE70698006840F288418D
:10548000C4F20201884212D0FFE70698006840F299
:10549000A041C4F20201884209D0FFE706980068E3
:1054A00040F2B841C4F20201884207D1FFE70698F2
:1054B0000168086840F00100086006E0069801688D
:1054C000086840F001000860FFE70DE006994FF41E
:1054D00000604865FFE70699002081F83400FFE787
:1054E00001208DF80B00FFE79DF80B008DF81F00E1
:1054F000FFE79DF81F0008B080BD0000000000001D
:1055000081B0ADF80200BDF8020004280FD1FFE71A
:1055100040F24D20C2F20040007838B9FFE740F277
:105520004D21C2F2004101200870FFE7FFE701B002
:10553000704700000000000080B582B0ADF80600A2
:105540008820C5F600000068BDF8061008420BD0A0
:10555000FFE7BDF806008821C5F600010860BDF828
:105560000600FFF7CDFFFFE702B080BD000000009E
:105570008FB00E900D9100200C908020C5F6000099
:105580000990FFE70D9800680C99C840002800F0CA
:10559000C181FFE70D9800680C9A012191400840F5
:1055A0000B900B98002800F0B181FFE70D98406840
:1055B00000F00300012807D0FFE70D98406800F0D5
:1055C000030002282FD1FFE70E9880680A900C98FC
:1055D0004100032000FA01F10A9888430A900D98CF
:1055E000C0680C99490000FA01F10A9808430A9032
:1055F0000A980E9988600E9840680A900C990120CC
:1056000000FA01F10A9888430A900D984068C0F3A7
:1056100000100C9900FA01F10A9808430A900A98C0
:105620000E994860FFE70D98406800F003000328DA
:1056300018D0FFE70E98C0680A900C98410003202C
:1056400000FA01F10A9888430A900D9880680C9935
:10565000490000FA01F10A9808430A900A980E9945
:10566000C860FFE70D98406800F00300022826D1CB
:10567000FFE70E980C996FF0030202EA510108440B
:10568000006A0A900C9800F0070081000F2000FAD1
:1056900001F10A9888430A900D9800690C9901F06D
:1056A0000701890000FA01F10A9808430A900A9854
:1056B0000E990C9B02EA530211440862FFE70E9810
:1056C00000680A900C984100032000FA01F10A9842
:1056D00088430A900D98406800F003000C99490037
:1056E00000FA01F10A9808430A900A980E99086096
:1056F0000D9880798007002800F00781FFE7FFE719
:1057000044F2F440C5F60200016841F00201016074
:10571000006800F0020008900898FFE70C9820F05D
:10572000030040F20841C5F6000140580A900C9869
:1057300000F0030081000F2000FA01F10A9888436D
:105740000A900E980021C5F60201884203D1FFE7B6
:10575000002007906CE00E9840F20041C5F602016F
:10576000884203D1FFE7012006905EE00E9840F6E4
:105770000001C5F60201884203D1FFE7022005902F
:1057800050E00E9840F60041C5F60201884203D170
:10579000FFE70320049042E00E9841F20001C5F6B5
:1057A0000201884203D1FFE70420039034E00E9801
:1057B00041F20041C5F60201884203D1FFE705200E
:1057C000029026E00E9841F60001C5F602018842DB
:1057D00003D1FFE70620019018E00E9841F6004142
:1057E000C5F60201884203D1FFE7072000900AE0D6
:1057F0000E9942F20042C5F602020A20914208BF09
:1058000009200090FFE700980190FFE701980290BF
:10581000FFE702980390FFE703980490FFE70498DE
:105820000590FFE705980690FFE706980790FFE7C9
:1058300007980C9901F00301890000FA01F10A9818
:1058400008430A900A980C9921F0030140F208429B
:10585000C5F6000288504FF0B04000680A900B99DE
:105860000A9888430A900D988079C006002805D5CB
:10587000FFE70B990A9808430A90FFE70A984FF050
:10588000B04108600420C5F6000000680A900B993A
:105890000A9888430A900D9880798006002805D5DB
:1058A000FFE70B990A9808430A90FFE70A9804213A
:1058B000C5F600010860099840680A900B990A989B
:1058C00088430A900D9880798007002805D5FFE766
:1058D0000B990A9808430A90FFE70A9809994860CB
:1058E000099800680A900B990A9888430A900D98C5
:1058F0008079C00728B1FFE70B990A9808430A90FE
:10590000FFE70A9809990860FFE7FFE70C98013064
:105910000C9037E60FB0704782B00190ADF80210DE
:105920008DF801209DF8010028B1FFE7BDF80200C5
:105930000199886105E0BDF80200000401998861C1
:10594000FFE702B07047000040F2B020C2F2004012
:10595000006870470000000040F20C00C2F20040F6
:10596000027840F2B021C2F2004108681044086099
:10597000704700000000000080B582B0032000F0F6
:1059800023F902F09DFD44F21842C5F602021168A7
:10599000C1F303234DF69851C0F60001CB5C03F030
:1059A0001F03D84000900098126802F00F02895C33
:1059B00001F01F01C84040F20801C2F20041086036
:1059C000009840F20001C2F2000108600F2000F0D0
:1059D00013F820B1FFE701208DF8070005E000F083
:1059E000BBF800208DF80700FFE79DF8070002B024
:1059F00080BD00000000000080B582B0009040F241
:105A00000C00C2F20040007820B9FFE701208DF8B9
:105A1000070030E040F20000C2F20000006840F2EF
:105A20000C01C2F200410A784FF47A71B1FBF2F135
:105A3000B0FBF1F003F0DCFB20B1FFE701208DF8B3
:105A4000070018E000980F280DD8FFE700994FF0E5
:105A5000FF30002200F0A0F8009840F20C01C2F2E2
:105A60000001086003E001208DF8070003E000203A
:105A70008DF80700FFE79DF8070002B080BD000029
:105A800010B581B00090009840784EF69851CEF253
:105A9000000108604EF6A051CEF20001086820F027
:105AA00001000860009840684EF69C52CEF2000259
:105AB0001060DDF800E09EF80C0000079EF80B2057
:105AC00040EA02609EF800209EF808309EF809C067
:105AD0009EF80A4040EAC4409EF80D4040EA8440E7
