:020000040800F2
:10000000A80500202904000809D6000889C80008AE
:1000100001D60008E923000811F7000800000000DD
:1000200000000000000000000000000059DB000894
:10003000812E000800000000B1D70008B9DB0008DD
:100040004704000847040008470400084704000864
:100050004704000847040008470400084704000854
:10006000A12E000847040008B12E0008F123000863
:100070004704000847040008470400084704000834
:100080004704000847040008470400084704000824
:10009000470400084704000847040008C12E000870
:1000A0004704000847040008470400084704000804
:1000B00047040008470400084704000847040008F4
:1000C00047040008470400084704000847040008E4
:1000D00047040008470400084704000847040008D4
:1000E000892E0008470400080000000047040008AB
:1000F00047040008470400084704000847040008B4
:1001000047040008470400084704000847040008A3
:100110004704000847040008470400084704000893
:100120004704000847040008470400084704000883
:100130004704000847040008470400084704000873
:1001400000000000000000000000000000000000AF
:100150004704000847040008470400084704000853
:100160004704000847040008470400084704000843
:100170004704000847040008470400080000000086
:100180004704000847040008470400084704000823
:100190004704000847040008470400084704000813
:1001A0004704000847040008470400080000000056
:1001B00047040008470400084704000847040008F3
:1001C0004704000847040008000000000000000089
:1001D00000000000000000004704000800000000CC
:1001E000000000000000000000000000000000000F
:1001F0000000000000000000470400084704000859
:1002000047040008470400080000000047040008F5
:100210004704000847040008470400084704000892
:100220004704000800000000470400080000000028
:1002300047040008470400080000000047040008C5
:100240004704000847040008470400084704000862
:100250004704000847040008470400084704000852
:100260004704000847040008470400084704000842
:100270004704000847040008470400080000000085
:100280004704000847040008470400084704000822
:1002900000000000470400084704000800000000B8
:1002A0000000000047040008470400084704000855
:1002B00047040008470400084704000847040008F2
:1002C00047040008470400084704000800F002F84B
:1002D00000F09AF80AA090E8000C82448344AAF146
:1002E0000107DA4501D100F08FF8AFF2090EBAE844
:1002F0000F0013F0010F18BFFB1A43F0010318475A
:10030000DC0A01001C0B0100103A24BF78C878C138
:10031000FAD8520724BF30C830C144BF04680C600B
:10032000704700000023002400250026103A28BF53
:1003300078C1FBD8520728BF30C148BF0B60704757
:100340006E2900F0ED81702900F02383662910F0FA
:100350007E84652910F07B84672910F078846129F8
:1003600010F0778403681B0A28BF41F080016929D7
:1003700000F09A81642900F09781752900F094813A
:100380006F2900F0B182782900F0EF82E92900F0AE
:100390004B82E42900F04882F52900F04582EF29DC
:1003A00000F0AE82F82900F0EE820368DB0928BF76
:1003B00041F08001632901F00B80732901F0108066
:1003C000E32901F01B80F32901F020800020704711
:1003D0001FB510F02FFC9DE8030001F011FB01F0A8
:1003E0000FF904000020002110F00EFC401C60609A
:1003F0000020002110F0F2FBE06001F00FF81FBDBB
:1004000010B501F074F810BD01F0CCF81146FFF7FB
:10041000DFFF0FF069FC01F093FA03B4FFF7F0FF80
:1004200003BC01F09FFC00000A4880470A4880474F
:100430000A480047FEE7FEE7FEE7FEE7FEE7FEE7C5
:10044000FEE7FEE7FEE7FEE705480649064A074BDA
:1004500070470000F12E000891DC0008CD02000872
:10046000B8030024A8050020B8050024A801002036
:1004700053EA020C00F069802DE9F04B4FF00006C2
:10048000002B1FBFB3FA83F503FA05F424FA05F62F
:100490005E4012BF1643B2FA82F502FA05F4C5F1C6
:1004A00020051EBF22FA05FC44EA0C04203556EA5A
:1004B000044C4FEA144418BF641C4FF000084FF07E
:1004C0000009904271EB030C39D3002919BFB1FA2E
:1004D00081F701FA07F6B0FA80F700FA07F6C7F1DC
:1004E00020071EBF20FA07FC46EA0C062037B6FBA1
:1004F000F4FCA7EB0507103F07F01F0BCBF120061C
:100500002CFA06F60CFA0BFB44BFB3460026202F4C
:10051000A4BF5E464FF0000B5BEA060C08BF4FF02D
:10052000010B19EB0B0948EB0608ABFB027C06FB41
:1005300002CC0BFB03CCC01B71EB0C01C1E70B46DB
:10054000024641464846BDE8F08B13B5084318BF44
:100550004FF0FF300146AFF30080BDE81C4070470C
:100560000FB4044910B503AA029800F0EDF810BCCE
:100570005DF814FB180000204FF0000200B5134690
:1005800094469646203922BFA0E80C50A0E80C50B3
:10059000B1F12001BFF4F7AF090728BFA0E80C5064
:1005A00048BF0CC05DF804EB890028BF40F8042B5D
:1005B00008BF704748BF20F8022B11F0804F18BFCA
:1005C00000F8012B704770477047704710B500F076
:1005D000AFFA006810BD10B5044600F0A9FA046037
:1005E00010BD70B5044685690068C10601D5302686
:1005F00000E02026C00707D070BDD4E901213046B5
:100600009047206A401C20626D1EF6D570BD70B503
:10061000044685690078C00707D170BDD4E901217F
:1006200020209047206A401C20626D1EF6D570BDC8
:1006300009684A0501D540B27047C905FCD500B22A
:10064000704709684A0501D5C0B27047C905FCD595
:1006500080B2704770B50C460546012A05D028784F
:10066000800600D5EA69002302E0012305E05B1C57
:10067000934202D2E05C0028F9D1A869E618C01ABA
:10068000A861286A184428622846FFF7AAFF04E0F8
:10069000D5E9012114F8010B9047B442F8D328465C
:1006A000FFF7B5FF70BD00002DE9F04106460024BC
:1006B00010687529314616A510D0FFF7B9FF00283C
:1006C00002DA404213A507E031688A0701D512A576
:1006D00002E0490704D511A5012401E0FFF7B1FFAD
:1006E00000210A2206F1240709E0B0FBF2FCB0FB6E
:1006F000F2F302FB1C00303078541846491C0028E5
:10070000F3D123462A463046BDE8F04100F059BAFD
:10071000000000002D0000002B0000002000000061
:1007200011680268006A530501D508700AE0D30514
:1007300001D5088006E0130603D5C217C1E90002FF
:1007400000E0086001207047074B70B50D467B4400
:1007500000F021FE0446284600F05CFE10B14FF088
:10076000FF3070BD204670BDFFF200002DE9FF5F35
:1007700015468A460446DFF8AC80F8440027D8E9DD
:1007800000103E46CDE9001010E03AF816106A4617
:1007900002A800F0DFFE411C07D02178890603D5AE
:1007A000E269391891420DD80744761C20788006FA
:1007B00002D5E069B84205DDAE42E6DB3AF8160044
:1007C0000028E2D1A069C01BA0612046FFF709FF05
:1007D000D8E90010CDE90010002017E03AF8181011
:1007E0006A4602A800F0B6FEB0F1FF3F81460BD08A
:1007F00000250DF1080B05E0D4E901211BF80500E7
:1008000090476D1C4D45F7D308F10100B04280467A
:10081000E4DB206A384420622046FFF7F8FEBDE89A
:10082000FF9F0000DA0401002DE9F0418046D21D4F
:1008300022F007020025D2E90002F52915A614D0FE
:10084000011E72F1000106DA0023D0EB030063EB16
:10085000020211A608E0D8F800108B0701D50FA6F8
:1008600002E0490701D50EA601251146002408F132
:10087000240704E000F060F930323A55641C50EA75
:100880000102F7D12B46324621464046BDE8F041F1
:1008900000F097B9000000002D0000002B000000C0
:1008A0002000000030B4002100F1240408E002F030
:1008B0000705D208303542EA4372DB086554491C0B
:1008C00052EA0305F3D10468002310A2250708D5D6
:1008D00004F020040C4304D0C46901230CA2641E5C
:1008E000C46130BC00F06DB910B5044621461068F3
:1008F000FFF7A7FE02462046BDE810400023D1E7DF
:10090000D21D22F00701D1E90023CBE7000000004F
:1009100030000000F0B40D460188090502D5214CD5
:100920007C4402E01F4C7C440E34002100F124067C
:1009300008E002F00F071209E75D42EA03721B09A3
:100940007754491C52EA0307F3D1027800231207B7
:1009500004D5702D06D009B1022311342246F0BC13
:1009600000F02FB901231034F8E770B504460D46A6
:1009700021461068FFF765FE024629462046BDE87D
:1009800070400023C6E7D21D22F00703D3E90023FD
:10099000C0E70368126843F0200303600823C361C3
:1009A0000023B7E73C0301002DE9F05F89460446C8
:1009B0004FF0000ADFF874B1FB44C0F820A02046D5
:1009C000E1688847002874D0252806D0D4E90121A1
:1009D0009047206A401C2062F1E700265F462046CF
:1009E000E16888472028054607DB312D05D27819B4
:1009F00010F8200C08B10643F1E7B00701D526F046
:100A00000406C4F81CA00027C4F818A02A2D09D099
:100A1000284610F0DBF838B304EB8708303DC8F8FF
:100A2000185019E059F8041B204604EB8702916125
:100A3000E1688847012F054618D1E069002820DACF
:100A400026F020061DE0D8F8180000EB800005EB2A
:100A500040003038C8F818002046E168884705464D
:100A600010F0B4F80028EED1012F0AD02E2D08D1B5
:100A70002046E16888477F1C0546022F46F0200685
:100A8000C4DBA069002803DA404246F00106A061F9
:100A9000F00701D026F010066C2D0BD0682D09D080
:100AA0004C2D39D06A2D35D0742D35D07A2D33D0D8
:100AB00016E038E0E1682F4620468847B8420546F0
:100AC00009D16C2F26D04FF48060E16806432046A0
:100AD0008847054604E06C2F1AD04FF48070064317
:100AE0000DB3A5F14100192802D8203546F400665F
:100AF0004A462946204626604E46FFF721FC80B133
:100B000001280BD0F61D26F0070000F1080956E772
:100B10004020E4E78020D8E70020D6E706F104096A
:100B20004DE7284652E7206ABDE8F09FCC0201005D
:100B300000487047D000002430B5B0F10A0271F1CE
:100B400000034FEA900E4EEA817EB0EB0E0061EB9F
:100B500091014FEA101E4EEA017E10EB0E0041EBB0
:100B600011114FEA102E4EEA016E10EB0E0041EB10
:100B700011214FEA104E4EEA014E10EB0E0041EBF0
:100B80001141401841F100014FEAD00040EA4170A4
:100B90004FEAD1014FEA810444EA907410EB8005DA
:100BA00044EB01046D1944EB0404521BA3414FF0C4
:100BB000000348BF0A3200D530BD401C41F100019E
:100BC00030BD2DE9F0470D4699469246044600F1A6
:100BD00024080168880604D5E06921F0100121602D
:100BE00000E00120A84201DD471B00E00027A169C9
:100BF0007A1902EB0900081AA0612078C00602D415
:100C00002046FFF7EEFC002608E0D4E901211AF89F
:100C100006009047206A401C761C20624E45F4DB9B
:100C20002078C0060AD52046FFF7DBFC06E0D4E9B1
:100C3000012130209047206A401C2062381EA7F115
:100C40000107F4DC07E0D4E9012118F8050090471A
:100C5000206A401C2062281EA5F10105F3DC204615
:100C6000FFF7D5FC2078000602D50220BDE8F0870A
:100C70000120FBE72DE9FF4F0C461E464FF0FF37E2
:100C80008BB0D2E90001DDF860800A908A46C1F39A
:100C90000A5505B93D46002108464FF00000BAF15B
:100CA000000F00F4400005DA00EB80004FF4400133
:100CB00001EA50004FEA9059B9F1010F00DDB94641
:100CC0000A9850EA4A000ED044F61050A5F2FF35BB
:100CD00045432F14B8F1000F1ED07542291E1EDDAA
:100CE000C9F100021CE0B8F1010F4FF0000001D083
:100CF000302103E0F24305E02154401CB042FBDB0D
:100D000030460022002121540B99C1F80880C1E926
:100D100000200FB0BDE8F08FBD1B6D1CDEE74A461A
:100D200000DA694206A800F0D7FC06AB93E807009A
:100D300003AB83E8070050460A990FF024F98DE8C9
:100D40000700A0F500501F3800900398002D0ADD21
:100D500042F21F014A460844002303A90390684653
:100D60000FF08EFB09E0A0F500504A461F38002323
:100D700003A9039068460FF098FB8DE80700000474
:100D8000000C03D04FF0FF30410800E01046B8F1EE
:100D9000000F03D00022009215461EE0751E05D4F8
:100DA000FFF7CAFE303262556D1EF9D5B3460122F7
:100DB000084302D000227F1C04E02078302801D1B3
:100DC00000227F1E002A099784D01DE0112D07DA2A
:100DD000FFF7B2FE303262556D1C50EA0102F5D1C8
:100DE000084302D00098C8B10EE00021681E05E05B
:100DF000235C625C63542254401E491C8142F7DB31
:100E0000AB46A81B401E0990002004F80B000B986D
:100E1000099AC0F80880C0E9002B7AE711264FF044
:100E2000000857E72DE9F04F88460446D21D22F00E
:100E3000070191B0D1E90001CDE90A010FF06CFC86
:100E400002460B98C00F01D02D2007E020688107D3
:100E500001D52B2002E0202101EAC000032A0990DD
:100E600001D0072A05DB03464146204600F0F4FB8B
:100E70000BE12078800601D5E06900E00620B8F19A
:100E8000650F814606D0B8F1660F18D0B8F1670F2C
:100E900070D131E00020B9F1110F009001DB112376
:100EA00001E009F101030AAA01A90CA8FFF7E2FE7B
:100EB000DDE90C70002609F10105834647E00120B9
:100EC0004B4600904FF000470AAA01A90CA8FFF773
:100ED000D1FEDDE90DB00C995D46002610B909F18F
:100EE00001000D18B9EB050003D4C0F1FF3609F17C
:100EF0000105A5EB09002BE0B9F1010F01DA4FF074
:100F000001090020B9F1110F0090484601DD1123BD
:100F100000E003460AAA01A90CA8FFF7ABFEDDE931
:100F20000C704D4600268346207800070AD4AB4556
:100F300000DA5D4601A8012D04DD411911F8011CFC
:100F4000302907D04F4502DA17F1040F04DA0120E7
:100F500082460FE06D1EEEE7002F02DCED1B3E44E3
:100F600003E0781CA84200DD7D1CB81B00F1010ADB
:100F70004FF000472078000703D4AA4501DB4FF06B
:100F8000FF3A0021B7F1004F0DF143088DF84310EF
:100F900024D002202B23002F01DA7F422D230A21A7
:100FA000021EA0F1010000DC5FB197FBF1FC97FB92
:100FB000F1F201FB1C7C17460CF1300C08F801CD56
:100FC000EEE7A8F1010003702188090501D545214C
:100FD00000E06521A0F1010800F8011C09980FA9A3
:100FE000A1EB0807FF1D00B10120411901EBEA70D8
:100FF000A1693844081A401EA0612078C00602D4B6
:101000002046FFF7EEFA099828B1D4E9012190476C
:10101000206A401C20622078C00622D52046FFF7B7
:10102000E0FA1EE0002E04DBB34502DD01A8805D7E
:1010300000E03020D4E901219047206A401C206262
:10104000761CAAF101005FEA000A0AD100F0D8FA82
:10105000C0680168405CD4E901219047206A401CC7
:101060002062281EA5F10105DCDC07E0D4E901219E
:1010700018F8010B9047206A401C2062381EA7F127
:101080000107F3DC2046FFF7C2FA032011B041E666
:101090002DE9F04F04460D46D21D22F0070089B01D
:1010A000D0E90097484639460FF036FB0246F80F64
:1010B00001D02D2307E02068810701D52B2302E012
:1010C000202101EAC0038DF820300BB1012000E09F
:1010D0000020032A824601D0072A04DB2946204645
:1010E00000F0BAFA3FE12078800601D40D2500E037
:1010F000E569C7F30A560D2D49DA00214FEA175B5F
:1011000008464FF00000002F00F4400007DA00EB23
:1011100080004FF4400100EBD07001EA60008115BF
:10112000012901DD4FF0FF3100224FEA850CBCF1AF
:10113000180F06D31346ACF118004FF08052C2408E
:1011400003E04FF4801323FA0CF30CF10C0CBCF108
:10115000200F04D3ACF1200C09FA0CF001E007FADF
:101160000CF000294FF0004801DD18B90FE00ED156
:1011700040450CD319EB02095F4121B9404502D12A
:101180009F4329EA0209BBEB175F00D0761C208839
:10119000000502D57B48784402E07A487844193843
:1011A00008AA302302F80A30037C0AF10101002E5C
:1011B0000AF1020A53546A4602DC4FF0300101E0A2
:1011C0004FF031014FF001088DF8001002D0A6F267
:1011D000FF3603E059EA470100D06B4E002D02DCD8
:1011E0002178090704D54FF002082E218DF801104F
:1011F000C44600210BE0C7F303433F01C35C491C15
:101200006D1E02F80830052908F1010801DA002DE9
:10121000F1DC00210CE000EB1973491C1B786D1EFA
:10122000082902F808304FEA091908F1010801DA23
:10123000002DF0DC21688B0602D516E0A8F101082C
:10124000E04505DD02EB080313F8013C302BF5D037
:10125000B8F1000F09DD02EB080313F8013C2E2B57
:1012600003D1090701D4A8F10108002D05DD3E21B5
:1012700002F808106D1E08F10108407C002E02F8EB
:10128000080008F1010804DA2D20764202F808006F
:1012900002E02B2002F808000A214FF47A708642FF
:1012A00008F101080BDB96FBF0F3303302F808304D
:1012B00096FBF0F308F1010800FB136601E0642ED1
:1012C0000CDB642096FBF0F3303302F8083096FB19
:1012D000F0F308F1010800FB136601E00A2E06DBBB
:1012E00096FBF1F0303002F8080008F1010896FB97
:1012F000F1F001FB1060303002F80800A16908F13C
:10130000010808EB050202EB0A00081AA061207828
:10131000C00602D42046FFF764F9216A08AE01EB4B
:101320000A00206204E0D4E9012116F8010B90477D
:10133000BAF1010AF7D22078C00602D52046FFF79D
:1013400050F96E4609E016F8010B3E280FD0D4E99B
:1013500001219047206A401C2062B8F10108F2D2B6
:101360002046FFF754F909B00320BDE8F08F206A4A
:101370002844206203E0D4E90121302090476D1E0B
:10138000EBD3F8E735FB000002FCFFFF01694A1CC4
:1013900002610878704700B58FB0CDE901310021B6
:1013A000059105497944CDE9031011466846FFF7D8
:1013B000FBFA0FB000BD0000E5FFFFFF10B5436969
:1013C00013B1AFF3008001E0FFF744F9012010BD35
:1013D000127800F124010A7000224A700122EDE720
:1013E00011684FF0FF32E9E710B5436913B1AFF36D
:1013F000008001E0FFF7BAF9012010BD128800F16A
:10140000240182840022C2840122EDE711684FF09A
:10141000FF32E9E7007B00F08000704710B54248DA
:101420005421FFF7A9F841485421FFF7A5F8404897
:101430005421FFF7A1F83F493B483C4A3F4B086025
:101440003D490A603A491960531C0365481C106500
:10145000012008653B48344A39A1784400F0D2F9AC
:1014600020B9384878440A3800F073FA37482F4AD0
:1014700035A1784400F0C6F920B9344878440A38D8
:1014800000F067FA32482A4A2FA1784400F0BAF9EE
:1014900020B92F4878440A3800F05BFA40232248EC
:1014A000DC000021224600F089F920B1254878446B
:1014B000543800F04EFA1D4822464023002100F027
:1014C0007DF920B121487844543800F042FA184898
:1014D00022461023002100F071F9002806D01C4894
:1014E0007844BDE81040563800F033BA10BD1048BB
:1014F00070B5006D20F001040B4800F0FBF90B48BB
:1015000000F0F8F90A4800F0F5F909E0206D20F044
:101510000105204600F0EEF9204600F075F82C4653
:10152000002CF3D170BD000028000024180000201A
:101530007C0000240C000024000000201000002487
:101540007200000084F800007700000070F80000CE
:101550005CF800002DE9F04116460C46054600F007
:1015600047F8036893F80101012807D0FF2C12D82F
:10157000185D80B101202C70BDE8F081D3F807011F
:101580003246214603F20713C7182846BC46BDE879
:10159000F041002360474FF0FF30EDE7004870470F
:1015A000D00000247546FFF7F9FFAE4605006946F6
:1015B000534620F00700854618B020B5FEF744FFDB
:1015C000BDE820404FF000064FF000074FF0000844
:1015D0004FF0000BAC46ACE8C009ACE8C009ACE881
:1015E000C009ACE8C00921F007018D467047000032
:1015F00010B500F005F8001D10BD00BF0DF600008D
:1016000000487047F000002470B50446051F00F044
:10161000DBF90068002C14BF446870BD002C18BFB3
:10162000AC423CBF20466468F8D301680A18AA425D
:1016300018BF456003D12A68054611440160286837
:101640004119A1421CBF6C6070BD6168696021686E
:101650000844286070BD00002DE9F0411F46044693
:1016600003260168072A01F4006004DB08B116A50F
:1016700005E016A503E008B115A500E015A521F0C9
:1016800010002060A069C01EA0610FB1401EA061C3
:101690002046FEF7A6FF4FB1D4E901213846904716
:1016A000206A401C2062C01C206206E0206AFAE723
:1016B000D4E9012115F8010B9047761EF8D2204697
:1016C000FEF7A5FFBDE8F0814E414E006E616E0051
:1016D000494E4600696E66002DE9F0478146164680
:1016E0008AB0354878440DC88DE80D0032487844FA
:1016F000801C03AC0DC884E80D0041F69B30084403
:10170000372190FBF1F290FBF1F5A5F1800501FB8B
:1017100012041B3C02D56442012000E00020DFF8E7
:1017200098A080460027FA44AAF1BE0A0EE0E0071E
:101730000AD03246684607EB470101230AEB8101D4
:101740000EF0B3FE8DE8070064107F1C002CEED174
:10175000194F7F44AE3F19E0E80715D007EB04109E
:101760000DF1180A90E80E008AE80E00C068F042F9
:1017700001D1981908903246012306A903A80EF05A
:1017800094FE03AB83E807006D10641C002DE3D1C9
:101790004FF0010332466946B8F1000F03A802D0AA
:1017A0000EF06EFE01E00EF080FEC9E90001C9F8FE
:1017B00008200AB0BDE8F08784F6000070B5C46860
:1017C000A50713D0650211D4B2F5807F09D0B2F518
:1017D000007F06D0B2F5806F08D1012300F124010B
:1017E00006E05D1E6FF07F46B54201D3012070BD5B
:1017F0000161C361416024F470611143C160002044
:1018000070BD00002DE9F0410C461646070047D098
:10181000104600F06FF82078611C61280AD0722809
:1018200002D077283CD102E00125002405E0022502
:10183000042402E0082448F2020511F8010B2B28C9
:1018400006D0622809D011F8010C74280AD00BE0E8
:1018500045F0030544F00204EFE745F0040544F0C9
:101860000104EAE744F010043846214600F078F815
:10187000411C15D00021316171604FF40071F56099
:10188000F1617061200704D530460222002100F08A
:1018900015F9306D40F0010030653046BDE8F0814B
:1018A0000020FBE72DE9F0410D460646104C206D67
:1018B000C10704D0410804D020F00104F7E7224614
:1018C0000EE0542000F0CBF807000ED0206D47F05A
:1018D00001010843542120653846FEF74DFE3A4683
:1018E00029463046BDE8F0418CE70020D6E70000ED
:1018F000280000242DE9F04704464FF000094FF07E
:10190000FF37C568D4E90486A80707D0204600F051
:1019100085F9304600F02EF8002802DA3846BDE896
:10192000F087280502D54046FFF76EFE4C21204681
:10193000FEF722FE206D20F0010020654846EEE70C
:1019400010B50446AFF300802046BDE81040FEF716
:1019500064BD10B500F0ACF9BDE8104000F0A2B9CC
:101960000EB5CDE9000100F066FA0290694601204B
:10197000ABBE0EBD08B5694600900220ABBE08BDE7
:101980001FB58DE8070069460520ABBE04B010BD49
:101990001FB58DE80F0069460620ABBEF6E708B517
:1019A000694600900920ABBE08BD1CB5CDE9000119
:1019B00069460A20ABBE1CBD704708B56946009059
:1019C0000C20ABBE08BD000000487047D8000024C2
:1019D000704770477047704738B504460A46002084
:1019E0006946AFF30080002808BF38BD0246009961
:1019F000204600F0C5F9012038BD012000F014BADE
:101A0000F8B5AFF30080054600200C46102000BF5B
:101A10000646A819A0420DD9324669460020AFF308
:101A20000080070008BF00F0FFF90098A04218BF2F
:101A30000546C419FFF7C8FF05600746F01D20F0F2
:101A400007004619284600F094F9B44208BFF8BDD3
:101A5000A21B31463868BDE8F84000F091B970B576
:101A60000646FFF7B1FF056806F10B0020F00704FA
:101A7000B4429CBF002070BD2B466A68BAB11068A2
:101A8000A04210D304F1080188423CBF506858605E
:101A900007D35168101941601168091B0160586033
:101AA0001460101D70BD13465268002AE7D121460C
:101AB0002846FFF791FF0028DED170BD2DE9F041E7
:101AC000044616460D464769007B80072ED03846EF
:101AD000FFF765FF50BB3EB3012E02D0022E25D189
:101AE00004E0204600F066F905441DE03846FFF7A3
:101AF00064FFE168002841F01001E16005DA20464A
:101B000000F058F80120BDE8F081C9030BD56268E8
:101B1000E16A914200D81146A26911442269891AEA
:101B2000814200DD08460544002D01DA0220EAE783
:101B3000E16A6068E268814206D29103E06203D5FF
:101B400022F4003141F01002A6690027AE4213DCF6
:101B5000E16A814201D90B4600E0034603EB060C23
:101B60002369ACEB030CAC4506DD814201D98C4600
:101B700000E084469C4505D1A760276042F0200024
:101B8000A5620DE0AD1BE669AE1B8142A66000D9DF
:101B90000846C01A281A20605819606022F02000F8
:101BA00003490840E060002084F84870ABE700007B
:101BB000BFCFD7FFC16821F4001141F08001C1609F
:101BC00000218160016070472DE9F047814614468D
:101BD0000E464FF0FF383248D5685769054209D0A4
:101BE0003846A169FFF7E1FE002811DB2C48C0430D
:101BF0000540E5602B46324649463846FFF7C0FEB1
:101C0000A16920F00042B21A11440028A16103D05A
:101C10002046FFF7CFFF4046BDE8F08770B5044689
:101C20000569C06A6168884200D80846E16821F405
:101C30002011E160C90312D5A84208D02246411BF9
:101C40002846FFF7C1FF10B14FF0FF3070BD0020F4
:101C5000E562C4E90150E06820F48030E0600020D3
:101C600070BD10B50446C06820F02000E060A16A95
:101C7000A06988420DD02046FFF7D0FFE06820F42D
:101C8000405040F01000E060A06AA0612069E0626E
:101C9000606044F24001E0688843E06010BD0000ED
:101CA00010000200002801D000F05CB8704700006E
:101CB00010B5014602A000F09EF8012010BD000002
:101CC00053494752545245443A20526564697265FB
:101CD00063743A2063616E2774206F70656E3A20DA
:101CE000000000000000000030B44FF0013C50F84C
:101CF000042BCCFA52F451F8043BD51A20D1FCB98C
:101D000050F8042BCCFA52F451F8043BD51A17D1F1
:101D1000B4B950F8042BCCFA52F451F8043BD51A5C
:101D20000ED16CB950F8042BCCFA52F451F8043BA4
:101D3000D51A05D1002CDAD030BC4FF00000704726
:101D400029BAB1FA81F111F01801D1F120008440D3
:101D5000F2D1CA40CB4012F0FF0213F0FF0330BCB7
:101D6000D01A704701491820ABBEFEE726000200DA
:101D7000704700210160C0E90110704710207047D2
:101D8000034640688C46002818BF88423CBF034683
:101D90004068F8D318681844884207D00CF1030053
:101DA00020F00700001D411A521A0146081D0A6062
:101DB000FFF72ABC10B50146C268900703D0900611
:101DC00007D5886A0AE0FEF7B3FE01210160881E8C
:101DD00010BD8B69486818440B69C01A91F84830E7
:101DE0001BB191F84910401A10BD1103FCD5002811
:101DF000FADD401E10BD70B505460C460A2000E015
:101E00006D1C00F037F835B128780028F8D102E0D1
:101E1000641C00F02FF814B120780028F8D1BDE838
:101E200070400A2000F026B810B500F02BF8BDE88D
:101E30001040FFF737BF10B5431C02E010F8011B3C
:101E400071B18107FAD14FF0013202C88C1A8C436C
:101E500014EAC211F9D0C01A0A0603D0C01E10BD80
:101E6000C01A10BD0A0401D0801E10BD0902FCD0AA
:101E7000401E10BD08B569468DF800000320ABBEBA
:101E800008BD000010B5012805D0002103A0FFF710
:101E9000B2FF012010BD09A1F8E7000053494752E5
:101EA000544D454D3A204F7574206F66206865612A
:101EB00070206D656D6F7279000000003A204865F2
:101EC0006170206D656D6F727920636F72727570CD
:101ED000746564000000000080B584B0039003982E
:101EE000006842F20001C4F20201884209D0FFE713
:101EF0000398006842F20011C4F20201884209D13D
:101F0000FFE742F20830C4F20200006810F4403FDC
:101F100009D129E046F20830C5F60200006810F445
:101F2000403F21D0FFE708F0A7FC029003984068EB
:101F30000190B0F5803F0AD0FFE70198B0F5003F6F
:101F400005D0FFE70198B0F5403F07D00AE00398BD
:101F5000C1880298B0FBF1F0029004E0029880087A
:101F6000029000E0FFE75FE04FF40020002106F060
:101F7000D3FC0290039840680090B0F5802F32D0D7
:101F8000FFE70098B0F5002F2DD0FFE70098B0F5DF
:101F9000402F28D0FFE70098B0F5801F23D0FFE73F
:101FA0000098B0F5A01F1ED0FFE70098B0F5C01F45
:101FB00019D0FFE70098B0F5E01F1FD0FFE70098A9
:101FC000B0F5001F1ED0FFE70098B0F5101F1DD020
:101FD000FFE70098B0F5201F1CD0FFE70098B0F590
:101FE000301F1BD01EE0039841686FF0010000EA2B
:101FF00051410298B0FBF1F0029014E00298000900
:10200000029010E00298400902900CE002988009CA
:10201000029008E00298C009029004E00298000AC9
:10202000029000E0FFE7FFE7029840080290029864
:1020300045F61061C0F25F01884209D8FFE70398B6
:102040000068806820F440700399096888602EE079
:1020500002984BF62041C0F2BE0188420AD8FFE741
:10206000039800688068012161F3092003990968D9
:1020700088601BE0029847F64001C0F27D1188425B
:102080000AD8FFE7039800688068022161F30920FD
:1020900003990968886008E003980068806840F444
:1020A0004070039909688860FFE7FFE7FFE704B025
:1020B00080BD00000000000080B582B00190019852
:1020C000806B00900098006E10F0500F4AD1FFE72F
:1020D0000099086E40F40070086600980068006877
:1020E0000007002821D5FFE7009800680AF080FC6F
:1020F000D0B1FFE700980068C0688004002812D4BF
:10210000FFE70099086E20F4807008660098006E62
:10211000C004002806D4FFE70099086E40F00100D3
:102120000866FFE7FFE7FFE718E000980068C0686F
:10213000800790B9FFE70099086E20F48070086668
:102140000098006EC004002806D4FFE70099086ECE
:1021500040F001000866FFE7FFE7FFE7009801F0A5
:1021600033FF10E00098006EC006002804D5FFE79A
:10217000009802F0C9FD05E00098806DC16C0198DF
:102180008847FFE7FFE702B080BD000000000000C5
:1021900080B582B001900198806B00900099086E24
:1021A00040F0400008660099486E40F00400486620
:1021B000009802F0A9FD02B080BD00000000000000
:1021C00080B582B001900198806B0090009802F079
:1021D00097FD02B080BD000080B584B002900298E7
:1021E00000680AF0D5FB0090029800680AF0D8FB5E
:1021F00000284BD0FFE70098002847D1FFE702985E
:102200000068806800F00D00012809D1FFE70298FE
:1022100000680AF03DFB02980168032008600DE0A9
:102220000299086E40F0100008660299486E40F06E
:102230000100486601208DF80F002BE005F0B4FD89
:102240000190FFE7029800688068C007E8B1FFE7E7
:1022500005F0AAFD0199401A032815D3FFE702985B
:1022600000688068C00770B1FFE70299086E40F00F
:10227000100008660299486E40F00100486601208F
:102280008DF80F0006E0FFE7DCE7FFE700208DF8A0
:102290000F00FFE79DF80F0004B080BD00000000B4
:1022A00080B586B00490049800680AF079FB002895
:1022B00040F09280FFE70498006880683F21C8F2F0
:1022C000000108420ED0FFE70499086E40F01000AC
:1022D00008660499486E40F00100486601208DF8B8
:1022E00017007DE0049800680AF0EEFA05F05CFD46
:1022F000039004980168012042F20002C4F2020235
:10230000914201900CD0FFE7049800684DF60071EF
:10231000CBF6FD710844B0FA80F040090190FFE768
:102320000198C10746F20030C5F6020000291CBF23
:1023300042F20030C4F202000AF0FAFA0290049865
:10234000006842F20011C4F20201884206D1FFE7A0
:1023500042F20000C4F20200009003E0049800681A
:102360000090FFE7009804990968884203D0FFE7CE
:10237000029880BBFFE7FFE7049800680068C00789
:1023800040BBFFE7049800680AF00AFB28B9FFE7A2
:10239000049800680AF098FAFFE705F005FD039934
:1023A000401A032815D3FFE7049800680068C007A7
:1023B00070B9FFE70499086E40F0100008660499B0
:1023C000486E40F00100486601208DF8170007E0D4
:1023D000FFE7D1E7FFE7FFE700208DF81700FFE7F1
:1023E0009DF8170006B080BDFFE7FEE70000000083
:1023F00080B540F2D810C2F2004003F0F9F880BD79
:1024000083B002900298016801201022C4F20202F7
:102410009142009000F0A380FFE70298016801203C
:102420002822C4F202029142009000F09880FFE757
:102430000298016801204022C4F2020291420090F9
:1024400000F08D80FFE70298016801205822C4F255
:1024500002029142009000F08280FFE7029801683A
:1024600001207022C4F202029142009077D0FFE76F
:102470000298016801208822C4F202029142009071
:102480006DD0FFE7029801680120A022C4F2020289
:102490009142009063D0FFE7029801680120B822C2
:1024A000C4F202029142009059D0FFE702980168FD
:1024B000012040F21042C4F20202914200904ED03C
:1024C000FFE702980168012040F22842C4F20202AC
:1024D0009142009043D0FFE702980168012040F24A
:1024E0004042C4F202029142009038D0FFE70298C5
:1024F0000168012040F25842C4F202029142009069
:102500002DD0FFE702980168012040F27042C4F22A
:1025100002029142009022D0FFE702980168012058
:1025200040F28842C4F202029142009017D0FFE7C5
:1025300002980168012040F2A042C4F202029142D6
:1025400000900CD0FFE7029800684FF64831CBF6B8
:10255000FD710844B0FA80F040090090FFE7009850
:10256000C00740B3FFE70298007810384AF6AB2165
:10257000CAF6AA21A0FB011000090190019800F001
:10258000070140F69450C0F60100405C0299C8650E
:102590000198042807D3FFE702990868042262F330
:1025A0000900886506E00299086840F2FF3290430E
:1025B0008865FFE705E00299086820F0FF0088655C
:1025C000FFE70298806D03B0704700000000000034
:1025D00084B003900398006801900398016801207B
:1025E00045F20842C5F60202914200904ED0FFE744
:1025F00003980168012045F21C42C5F6020291428F
:10260000009043D0FFE703980168012045F2304273
:10261000C5F602029142009038D0FFE703980168A6
:10262000012045F24442C5F60202914200902DD0AD
:10263000FFE703980168012045F25842C5F60202FF
:102640009142009022D0FFE703980168012045F2F3
:102650006C42C5F602029142009017D0FFE7039842
:102660000168012045F28042C5F6020291420090C5
:102670000CD0FFE7039800684AF66C31CAF2FD718E
:102680000844B0FA80F040090090FFE70098C007C6
:1026900010B3FFE70398007808384CF6CD41CCF62C
:1026A000CC41A0FB011000090290029945F6000000
:1026B000C5F6020000EB810003990866039945F610
:1026C0008000C5F602004866029800F01F01012054
:1026D00088400399886635E00398007810384AF6F8
:1026E000AB21CAF6AA21A0FB0110000902900198B3
:1026F00040F2B841C4F2020188420CD8FFE70198C9
:1027000040F21041C4F20201884204D3FFE702986C
:1027100008300290FFE7029940F60000C4F2020080
:1027200000EB810003990866039940F68000C4F22B
:1027300002004866029800F01F01012088400399BA
:102740008866FFE704B0704783B002900298007972
:1027500001900198002800F08A80FFE7019808287E
:1027600000F28580FFE702980168012045F20842E7
:10277000C5F60202914200904ED0FFE70298016830
:10278000012045F21C42C5F602029142009043D05E
:10279000FFE702980168012045F23042C5F60202C7
:1027A0009142009038D0FFE702980168012045F27D
:1027B0004442C5F60202914200902DD0FFE70298F4
:1027C0000168012045F25842C5F60202914200908C
:1027D00022D0FFE702980168012045F26C42C5F65D
:1027E00002029142009017D0FFE702980168012091
:1027F00045F28042C5F60202914200900CD0FFE7FC
:10280000029800684AF66C31CAF2FD710844B0FAC9
:1028100080F040090090FFE70098C00780B1FFE713
:10282000019945F6FC00C5F6020000EB8100029913
:10283000C866029945F64010C5F6020008670FE029
:10284000019940F6FC00C4F2020000EB81000299FD
:10285000C866029940F64010C4F202000867FFE71C
:102860000198411E0120884002994867FFE703B0A4
:10287000704700000000000085B0049000208DF833
:102880000F000498806918BBFFE70498806A0290E3
:1028900003281BD80299DFE801F0020D0218049802
:1028A00090F82F00C00720B1FFE701208DF80F003E
:1028B000FFE70CE00498C06AB0F1C07F04D1FFE7E5
:1028C00001208DF80F00FFE701E000E0FFE747E09F
:1028D00004988069B0F5005F26D1FFE70498806A0C
:1028E000019003281ED80199DFE801F002060211C9
:1028F00001208DF80F0016E0049890F82F00C00713
:1029000020B1FFE701208DF80F00FFE70BE00498EE
:10291000C06AB0F1C07F04D1FFE701208DF80F003D
:10292000FFE700E0FFE71AE00498806A00900328C0
:1029300004D3FFE70098032804D00EE001208DF8AF
:102940000F000BE0049890F82F00C00720B1FFE7BC
:1029500001208DF80F00FFE700E0FFE7FFE7FFE74A
:102960009DF80F0005B0704789B008900791069256
:1029700005930898806D04900898806D03900898DE
:10298000016801201022C4F202029142029000F07C
:102990000381FFE70898016801202822C4F202029F
:1029A0009142029000F0F880FFE70898016801204A
:1029B0004022C4F202029142029000F0ED80FFE753
:1029C0000898016801205822C4F202029142029044
:1029D00000F0E280FFE70898016801207022C4F24D
:1029E00002029142029000F0D780FFE70898016848
:1029F00001208822C4F202029142029000F0CC80B1
:102A0000FFE7089801680120A022C4F20202914267
:102A1000029000F0C180FFE7089801680120B82209
:102A2000C4F202029142029000F0B680FFE70898DB
:102A30000168012040F21042C4F202029142029069
:102A400000F0AA80FFE708980168012040F22842C0
:102A5000C4F202029142029000F09E80FFE70898C3
:102A60000168012040F24042C4F202029142029009
:102A700000F09280FFE708980168012040F2584278
:102A8000C4F202029142029000F08680FFE70898AB
:102A90000168012040F27042C4F2020291420290A9
:102AA0007AD0FFE708980168012040F28842C4F21A
:102AB0000202914202906FD0FFE70898016801205E
:102AC00040F2A042C4F202029142029064D0FFE7B9
:102AD00008980168012040F2B842C4F20202914213
:102AE000029059D0FFE708980168012045F208429A
:102AF000C5F60202914202904ED0FFE708980168A5
:102B0000012045F21C42C5F602029142029043D0D8
:102B1000FFE708980168012045F23042C5F602023D
:102B20009142029038D0FFE708980168012045F2F1
:102B30004442C5F60202914202902DD0FFE7089868
:102B40000168012045F25842C5F602029142029006
:102B500022D0FFE708980168012045F26C42C5F6D3
:102B600002029142029017D0FFE708980168012005
:102B700045F28042C5F60202914202900CD0FFE776
:102B8000089800684AF66C31CAF2FD710844B0FA40
:102B900080F040090290FFE70298C00770B1FFE79C
:102BA0000898416E806E48600898C06E28B1FFE7B3
:102BB0000898016F406F4860FFE7FFE708980168D9
:102BC00001201022C4F202029142019000F0A38081
:102BD000FFE70898016801202822C4F2020291420E
:102BE000019000F09880FFE70898016801204022DA
:102BF000C4F202029142019000F08D80FFE7089834
:102C0000016801205822C4F202029142019000F0B2
:102C10008280FFE70898016801207022C4F2020256
:102C20009142019077D0FFE708980168012088223F
:102C3000C4F20202914201906DD0FFE7089801684A
:102C40000120A022C4F202029142019063D0FFE76A
:102C5000089801680120B822C4F202029142019052
:102C600059D0FFE708980168012040F21042C4F2F1
:102C70000202914201904ED0FFE7089801680120BE
:102C800040F22842C4F202029142019043D0FFE791
:102C900008980168012040F24042C4F202029142C9
:102CA000019038D0FFE708980168012040F25842AF
:102CB000C4F20202914201902DD0FFE7089801680A
:102CC000012040F27042C4F202029142019022D0EF
:102CD000FFE708980168012040F28842C4F202022E
:102CE0009142019017D0FFE708980168012040F257
:102CF000A042C4F20202914201900CD0FFE7089872
:102D000000684FF64831CBF6FD710844B0FA80F008
:102D100040090190FFE70198C00750B3FFE708980A
:102D2000C06D00F01F013F2088400499886008981A
:102D30000168086820F480200860059808990968EF
:102D4000486008988068402809D1FFE706980899EC
:102D500009688860079808990968C86008E00798BA
:102D6000089909688860069808990968C860FFE7AB
:102D700082E008980168012045F20842C5F6020287
:102D8000914200904ED0FFE708980168012045F27B
:102D90001C42C5F602029142009043D0FFE708981A
:102DA0000168012045F23042C5F6020291420090CE
:102DB00038D0FFE708980168012045F24442C5F683
:102DC0000202914200902DD0FFE70898016801208F
:102DD00045F25842C5F602029142009022D0FFE728
:102DE00008980168012045F26C42C5F60202914242
:102DF000009017D0FFE708980168012045F2804253
:102E0000C5F60202914200900CD0FFE708980068D6
:102E10004AF66C31CAF2FD710844B0FA80F04009FC
:102E20000090FFE70098C00720B3FFE70898C06D47
:102E300000F01F0101208840039948600598089917
:102E40000968486008988068402809D1FFE706981B
:102E5000089909688860079808990968C86008E0B7
:102E60000798089909688860069808990968C860F1
:102E7000FFE700E0FFE7FFE709B070470000000050
:102E8000704700000000000080B54FF4806004F03F
:102E900083FD4FF4005004F07FFD80BD0000000072
:102EA00080B5042004F078FD80BD00000000000023
:102EB00080B5102004F070FD80BD0000000000000F
:102EC00080B5802004F068FD4FF4807004F064FD4C
:102ED0004FF4007004F060FD80BD000000000000B1
:102EE00081B0EFF3108072B60090FFE7FEE70000BC
:102EF00044F60C01C5F60201086840F002000860C3
:102F0000FFE744F60400C5F60200006880040028CC
:102F100001D4FFE7F5E7704780B586B004900391D0
:102F2000029200200090FFE7049890F85C000128CE
:102F300004D1FFE702208DF817005BE0049901201F
:102F400081F85C00FFE7FFE70498FFF745F98DF88B
:102F500007009DF80700E0BBFFE70498006E40F013
:102F6000020020F4885004990866049800680399C8
:102F7000029A09F019FFFFE70498006809F0F8FCCD
:102F8000F0B1FFE700980130009000984FF6000183
:102F9000C2F2C351884212D3FFE70498006E40F09A
:102FA000100020F0020004990866FFE70499002051
:102FB00081F85C00FFE701208DF817001AE0DBE7DD
:102FC0000498006E40F0010020F0020004990866A9
:102FD00005E00499086E40F010000866FFE7FFE77F
:102FE0000499002081F85C00FFE79DF807008DF848
:102FF0001700FFE79DF8170006B080BD0000000035
:1030000080B5AAB02890279100208DF89B002798C2
:10301000006808B1FFE7FFE7FFE7289890F85C0039
:10302000012804D1FFE702208DF8A7002DE128999F
:10303000012081F85C00FFE7FFE70020219022904B
:103040002898006842F20001C4F20201884206D1C9
:10305000FFE742F20010C4F20200099002E00020F3
:103060000990FFE7099878B9FFE72899086E40F0C2
:1030700020000866FFE72899002081F85C00FFE740
:1030800001208DF8A70000E1099809F0A9FC08903B
:103090002898006809F0A4FC002840F0E280FFE7CF
:1030A0000898002840F0DD80FFE72898016801209B
:1030B00042F20002C4F20202914207900CD0FFE7F4
:1030C000289800684DF60071CBF6FD710844B0FAFF
:1030D00080F040090790FFE70798C10746F20030EB
:1030E000C5F6020000291CBF42F20030C4F2020003
:1030F00025902798006800285ED0FFE72598806813
:1031000020F4404027994968084325998860289809
:103110000168012042F20002C4F2020291420690CC
:103120000CD0FFE7289800684DF60071CBF6FD71D2
:103130000844B0FA80F040090690FFE70698C107FE
:1031400046F20030C5F6020000291CBF42F20030F2
:10315000C4F2020042F20031C4F20201884212D1EC
:10316000FFE742F20000C4F2020009F021FC0490E3
:1031700042F20010C4F2020009F01AFC0146049861
:103180000843059007E046F20000C5F6020009F08A
:103190000FFC0590FFE7059868B9FFE72598806860
:1031A00040F61F718843279A1168926811430843BB
:1031B00025998860FFE753E02599886820F440400E
:1031C000886028980168012042F20002C4F20202DD
:1031D000914203900CD0FFE7289800684DF60071EB
:1031E000CBF6FD710844B0FA80F040090390FFE788
:1031F0000398C10746F20030C5F6020000291CBF43
:1032000042F20030C4F2020042F20031C4F2020184
:10321000884212D1FFE742F20000C4F2020009F036
:10322000C7FB019042F20010C4F2020009F0C0FB9B
:10323000014601980843029007E046F20000C5F6F7
:10324000020009F0B5FB0290FFE7029838B9FFE7EA
:103250002599886840F61F7290438860FFE7FFE772
:1032600008E02899086E40F02000086601208DF8DB
:103270009B00FFE7FFE72899002081F85C00FFE74B
:103280009DF89B008DF8A700FFE79DF8A7002AB0E6
:1032900080BD00000000000080B5CEB03A903991AA
:1032A00000208DF8E30035903A9890F8440001280A
:1032B00001D1FFE70BE03A98006846F20001C5F63D
:1032C0000201884201D1FFE700E0FFE7FFE73998FC
:1032D000C0680021C4F2FF71884201D0FFE71EE000
:1032E0003A98006842F20001C4F20201884201D11A
:1032F000FFE7FFE73A98006842F20011C4F20201CA
:10330000884201D1FFE7FFE73A98006846F20001E2
:10331000C5F60201884201D1FFE7FFE7FFE7FFE7BB
:103320003A9890F85C00012805D1FFE702208DF85B
:10333000EF0000F043BE3A99012081F85C00FFE7FE
:10334000FFE73A98006809F043FB002840F0228626
:10335000FFE73998C0780006002837D4FFE73A988D
:10336000006846F20001C5F6020188422DD0FFE751
:1033700039980068000330B9FFE739980068C0F356
:103380008460329015E03998006890FAA0F03C9083
:103390003C9820B9FFE720208DF8F70005E03C9825
:1033A000B0FA80F08DF8F700FFE79DF8F700329053
:1033B000FFE7329800F01F01012000FA01F23A986D
:1033C0000168C8691043C861FFE7FFE73A980068E1
:1033D00039990A68496809F03FFB3A98006809F092
:1033E000F7FA34903A98006809F0BAFA33903498B2
:1033F000002840F05A82FFE73398002840F05582B9
:10340000FFE73A980068399A1168926809F08CFBD6
:103410003A98006846F20001C5F6020188420BD1D5
:10342000FFE7399840693A990968C96801F01801BD
:1034300089088840379038E041F20000C5F6004026
:10344000006800F07040B0F1805F0BD1FFE7399861
:1034500040693A990968C96801F01C014908884027
:1034600031901FE03A980068C068C00600280BD46D
:10347000FFE7399840693A990968C96801F01C0169
:103480004908884030900AE0399840693A990968BB
:10349000C96801F01001490888403090FFE7309872
:1034A0003190FFE731983790FFE739980069042899
:1034B00041D0FFE73A98006839990A680969379B53
:1034C00009F0BAFB3A98006846F20001C5F602011D
:1034D000884215D1FFE73A980068399A1169D26994
:1034E00009F0FAFB3A980068399A116992F820209D
:1034F000013AB2FA82F25209520609F0CDFB19E004
:103500003A980068399A116992F82120013AB2FA82
:1035100082F25209D20709F0FFFB3A980068399A03
:103520001169127E013AB2FA82F25209D20209F00E
:103530006FFBFFE7B8E13A98006846F20001C5F674
:103540000201884240F06681FFE73A980068002156
:1035500009F0F6F9000348B9FFE73A98006800213E
:1035600009F0EEF9C0F384602F9018E03A980068F3
:10357000002109F0E5F990FAA0F03E903E9820B9BC
:10358000FFE720208DF8FF0005E03E98B0FA80F0BC
:103590008DF8FF00FFE79DF8FF002F90FFE72F98C1
:1035A0002E9039980068000330B9FFE73998006819
:1035B000C0F384602D9015E03998006890FAA0F06F
:1035C0004090409820B9FFE720208DF8070105E0E2
:1035D0004098B0FA80F08DF80701FFE79DF80701E9
:1035E0002D90FFE72E982D99884207D1FFE73A9852
:1035F00000680022114609F0AFFBFFE73A98006827
:10360000012109F09DF9000348B9FFE73A980068E5
:10361000012109F095F9C0F384602C9018E03A98E4
:103620000068012109F08CF990FAA0F042904298CC
:1036300020B9FFE720208DF80F0105E04298B0FA8D
:1036400080F08DF80F01FFE79DF80F012C90FFE748
:103650002C982B9039980068000330B9FFE739980F
:103660000068C0F384602A9015E03998006890FAE9
:10367000A0F04490449820B9FFE720208DF817016E
:1036800005E04498B0FA80F08DF81701FFE79DF847
:1036900017012A90FFE72B982A99884207D1FFE764
:1036A0003A9800680121002209F056FBFFE73A989A
:1036B0000068022109F044F9000348B9FFE73A988D
:1036C0000068022109F03CF9C0F38460299018E0F9
:1036D0003A980068022109F033F990FAA0F0469078
:1036E000469820B9FFE720208DF81F0105E0469895
:1036F000B0FA80F08DF81F01FFE79DF81F012990B7
:10370000FFE72998289039980068000330B9FFE74F
:1037100039980068C0F38460279015E039980068F4
:1037200090FAA0F04890489820B9FFE720208DF843
:10373000270105E04898B0FA80F08DF82701FFE7EF
:103740009DF827012790FFE728982799884207D1FD
:10375000FFE73A9800680221002209F0FDFAFFE72E
:103760003A980068032109F0EBF8000348B9FFE735
:103770003A980068032109F0E3F8C0F384602690CA
:1037800018E03A980068032109F0DAF890FAA0F0FE
:103790004A904A9820B9FFE720208DF82F0105E0D4
:1037A0004A98B0FA80F08DF82F01FFE79DF82F01BD
:1037B0002690FFE72698259039980068000330B9D5
:1037C000FFE739980068C0F38460249015E03998C9
:1037D000006890FAA0F04C904C9820B9FFE72020A8
:1037E0008DF8370105E04C98B0FA80F08DF837017C
:1037F000FFE79DF837012490FFE725982499884238
:1038000007D1FFE73A9800680321002209F0A4FAE3
:10381000FFE748E03A980068006E00F0F8403999F8
:103820000968B0EB816F07D1FFE73A980168086E2D
:1038300020F000400866FFE73A980068406E00F00C
:10384000F84039990968B0EB816F07D1FFE73A98E2
:103850000168486E20F000404866FFE73A9800682B
:10386000806E00F0F84039990968B0EB816F07D19C
:10387000FFE73A980168886E20F000408866FFE70D
:103880003A980068C06E00F0F84039990968B0EBCA
:10389000816F07D1FFE73A980168C86E20F00040B9
:1038A000C866FFE7FFE7FFE7FFE73A98006809F01F
:1038B00077F8002840F06D83FFE73A980068399A5E
:1038C0001168D26809F04CF93998C0680021C4F237
:1038D000FF71884240F0F981FFE73A980068239031
:1038E00042F20001C4F20201884240F0A480FFE7E6
:1038F000399800680221C0F23041884203D1FFE7C5
:103900000120229094E0399800680421C0F66001FB
:10391000884205D1FFE74020C1F62010219084E0C5
:10392000399800680821C0F69041884205D1FFE728
:103930008020C1F65050209074E039980068102122
:10394000C1F2C001884206D1FFE740F20010C2F286
:1039500080101F9063E0399800682021C1F2F04187
:10396000884206D1FFE740F20020C2F2B0501E901C
:1039700052E03998006840F20041C2F600218842C6
:1039800006D1FFE740F60000C2F630601D9040E02F
:103990003998006840F60001C2F63061884206D1CD
:1039A000FFE741F20000C3F260201C902EE039983E
:1039B000006841F20001C3F26021884206D1FFE7AE
:1039C00042F20000C3F290601B901CE0399800683E
:1039D0000021C4F22131884205D1FFE70020C4F262
:1039E00052701A900CE0399801680022C4F68432B3
:1039F0000020914204BF0020C4F6B8701A90FFE77F
:103A00001A981B90FFE71B981C90FFE71C981D90CD
:103A1000FFE71D981E90FFE71E981F90FFE71F9875
:103A20002090FFE720982190FFE721982290FFE760
:103A30002298199044E13A98006842F20011C4F2C9
:103A40000201884240F09480FFE739980068022123
:103A5000C0F23041884203D1FFE70120189084E092
:103A6000399800680421C0F66001884205D1FFE75B
:103A70004020C1F62010179074E0399800680821A2
:103A8000C0F69041884205D1FFE78020C1F6505032
:103A9000169064E0399800681021C1F2C001884294
:103AA00006D1FFE740F20010C2F28010159053E0FB
:103AB000399800682021C1F2F041884206D1FFE721
:103AC00040F20020C2F2B050149042E039980068F1
:103AD00040F20041C2F60021884206D1FFE740F6DD
:103AE0000000C2F63060139030E03998006840F66C
:103AF0000001C2F63061884206D1FFE741F20000C2
:103B0000C3F2602012901EE03998006841F2000173
:103B1000C3F26021884206D1FFE742F20000C3F2FF
:103B2000906011900CE0399801680022C4F684324C
:103B30000020914204BF0020C4F6B8701190FFE746
:103B400011981290FFE712981390FFE713981490C2
:103B5000FFE714981590FFE715981690FFE7169861
:103B60001790FFE717981890FFE718981090A4E0B7
:103B70003A98006846F20001C5F60201884240F01A
:103B80009680FFE7399800680221C0F230418842F0
:103B900003D1FFE701200F9086E0399800680421E7
:103BA000C0F66001884205D1FFE74020C1F6201031
:103BB0000E9076E0399800680821C0F6904188425E
:103BC00005D1FFE78020C1F650500D9066E039988E
:103BD00000681021C1F2C001884206D1FFE740F21F
:103BE0000010C2F280100C9055E039980068202136
:103BF000C1F2F041884206D1FFE740F20020C2F254
:103C0000B0500B9044E03998006840F20041C2F691
:103C10000021884206D1FFE740F60000C2F630607E
:103C20000A9032E03998006840F60001C2F630612F
:103C3000884206D1FFE741F20000C3F260200990FC
:103C400020E03998006842F20001C3F29061884296
:103C500006D1FFE744F20000C3F6C02008900EE052
:103C60003998016844F20002C3F6C0220020914254
:103C700004BF48F20000C3F6F0600890FFE7089820
:103C80000990FFE709980A90FFE70A980B90FFE771
:103C90000B980C90FFE70C980D90FFE70D980E9095
:103CA000FFE70E980F90FFE70F98079002E00020C3
:103CB0000790FFE707981090FFE710981990FFE72B
:103CC0002398199908F0F8FEFFE73998C0780006A4
:103CD000002840F15D81FFE73A980168012042F237
:103CE0000002C4F20202914206900CD0FFE73A981B
:103CF00000684DF60071CBF6FD710844B0FA80F013
:103D000040090690FFE70698C10746F20030C5F665
:103D1000020000291CBF42F20030C4F2020008F089
:103D2000FFFD36903A9801684FF0010042F2000220
:103D3000C4F20202914205900CD0FFE73A98006865
:103D40004DF60071CBF6FD710844B0FA80F04009E1
:103D50000590FFE70598C10746F20030C5F602005E
:103D600000291CBF42F20030C4F2020042F20031CE
:103D7000C4F20201884212D1FFE742F20000C4F20D
:103D8000020008F00DFE039042F20010C4F202009F
:103D900008F006FE014603980843049007E046F247
:103DA0000000C5F6020008F0FBFD0490FFE7049850
:103DB000002840F0E380FFE7399800680021CCF24A
:103DC0005271884255D1FFE79DF8DA0000060028BD
:103DD0004FD4FFE73A98006846F20001C5F60201A9
:103DE000884245D1FFE73A980168012042F200027B
:103DF000C4F20202914202900CD0FFE73A980068A8
:103E00004DF60071CBF6FD710844B0FA80F0400920
:103E10000290FFE70298C10746F20030C5F60200A3
:103E200000291CBF42F20030C4F20200369941F46E
:103E3000000108F0DDFE40F20400C2F2000000685C
:103E40004FEA901042F66351C0F23E51A0FB0110C0
:103E50004FEA90114FF0020000EB41003590FFE770
:103E6000359820B1FFE7359801383590F8E7FFE73E
:103E700083E0399800680021CCF22131884238D1A2
:103E8000FFE79DF8DB00C00798BBFFE73A980068A2
:103E900046F20001C5F60201884229D1FFE73A98AF
:103EA0000168012042F20002C4F202029142019034
:103EB0000CD0FFE73A9800684DF60071CBF6FD7123
:103EC0000844B0FA80F040090190FFE70198C1076B
:103ED00046F20030C5F6020000291CBF42F2003055
:103EE000C4F20200369941F0807108F081FEFFE7CC
:103EF00042E0399800680021CCF68431884239D1FB
:103F0000FFE79DF8DA004006002833D4FFE73A982F
:103F1000006846F20001C5F60201884229D1FFE798
:103F20003A980168012042F20002C4F20202914272
:103F300000900CD0FFE73A9800684DF60071CBF680
:103F4000FD710844B0FA80F040090090FFE7009846
:103F5000C10746F20030C5F6020000291CBF42F23C
:103F60000030C4F20200369941F4800108F040FEAE
:103F7000FFE700E0FFE7FFE7FFE708E03A99086E98
:103F800040F02000086601208DF8E300FFE7FFE71E
:103F9000FFE708E03A99086E40F02000086601202B
:103FA0008DF8E300FFE7FFE73A99002081F85C0015
:103FB000FFE79DF8E3008DF8EF00FFE79DF8EF00C5
:103FC0004EB080BD0000000010B588B0079040F2F0
:103FD0000040C5F602004FF40051012203F0CCFE70
:103FE000079840F26811C2F20041884240F0848193
:103FF000FFE740F29530C2F200400078002840F020
:10400000AC80FFE740F26C00C2F2000001680131B1
:104010000160006844F6216188422DD3FFE740F239
:104020000000C2F20040038840F24812C2F200428F
:10403000116819441160438840F28802C2F20002FC
:10404000116819441160838840F23412C2F20042B0
:10405000116819441160C38840F27802C2F200026C
:10406000116819441160028940F24011C2F2004106
:10407000086810440860FFE740F26C00C2F20000DC
:10408000006845F20821884266D1FFE740F2481EE9
:10409000C2F2004E9EED000AB8EE400A9FEDE71A0C
:1040A00080EE010A40F24410C2F2004080ED000AA6
:1040B00040F2880CC2F2000C9CED000AB8EE400AF7
:1040C00080EE010A40F28400C2F2000080ED000A96
:1040D00040F23413C2F2004393ED000AB8EE400AF6
:1040E00080EE010A40F23010C2F2004080ED000A7A
:1040F00040F27802C2F2000292ED000AB8EE400AE5
:1041000080EE010A40F27400C2F2000080ED000A65
:1041100040F24011C2F2004191ED000AB8EE400AAF
:1041200080EE010A40F23C10C2F2004080ED000A2D
:1041300040F29534C2F20044012020700020CEF8F5
:104140000000CCF8000018601060086040F26C01BC
:10415000C2F200010860FFE7CDE040F20001C2F2C8
:1041600000410A8840F28000C2F20000026090ED37
:10417000000AB8EE400A40F24410C2F2004090ED4E
:10418000001A30EE410A9FEDAE3A80EE030A9FED31
:10419000AD2A20EE020A9FEDAC1A20EE010A40F291
:1041A0004010C2F2000080ED000A4A8840F24C1034
:1041B000C2F20040026090ED000AB8EE400A40F200
:1041C0008400C2F2000090ED004A30EE440A80EE16
:1041D000030A20EE020A20EE010A40F2AC30C2F2DD
:1041E000004080ED000A8A8840F27000C2F20000B0
:1041F000026090ED000AB8EE400A40F23010C2F2C0
:10420000004090ED001A30EE410A80EE030A20EEE5
:10421000020AB1EE041A20EE010A40F2D800C2F2FE
:10422000000080ED000ACB8840F23812C2F2004252
:10423000136092ED000AB8EE400A40F27402C2F236
:10424000000292ED004A30EE440A80EE030A20EEAE
:10425000020A20EE010A80ED010A0A8940F27C017F
:10426000C2F200010A6091ED000AB8EE400A40F285
:104270003C11C2F2004191ED004A30EE440A80EE5A
:10428000030A20EE020A20EE010A80ED020A90EDF8
:10429000000A20EE000AB3EE091AB4EE410AF1EE6C
:1042A00010FA20DCFFE740F2D800C2F2000090EDE7
:1042B000010A20EE000AB3EE091AB4EE410AF1EE4B
:1042C00010FA10DCFFE740F2D800C2F2000090EDD7
:1042D000020A20EE000AB3EE091AB4EE410AF1EE2A
:1042E00010FA07DDFFE740F21C11C2F200010020C6
:1042F0000870FFE7FFE7FFE740F29530C2F20040A9
:104300000078012840F0A083FFE740F29030C2F22D
:104310000040007801285FD1FFE740F29430C2F2FC
:104320000040007801280FD1FFE740F20800C2F2F8
:10433000000090ED000AB7EE001A30EE010A80EDA1
:10434000000A0BF035FD17E040F21A10C2F200002F
:10435000007801280FD1FFE740F20800C2F2000008
:1043600090ED000ABFEE001A30EE010A80ED000A5F
:104370000BF01EFDFFE7FFE740F20800C2F200006D
:1043800090ED000A9FED311AB4EE410AF1EE10FAF9
:1043900009DDFFE740F20801C2F200010020C4F28B
:1043A000C820086017E040F20800C2F2000090ED5B
:1043B000000AB3EE041AB4EE410AF1EE10FA09DA7B
:1043C000FFE740F20801C2F200010020C4F2A01091
:1043D0000860FFE7FFE711E040F29030C2F20040D2
:1043E0000078022809D1FFE740F20801C2F200017B
:1043F0000020C4F248200860FFE7FFE740F2903059
:10440000C2F200400078012875D1FFE740F29230F7
:10441000C2F200400078012826D1FFE740F21C00DC
:10442000C2F2004090ED000A9FED091A30EE010A39
:1044300080ED000A0BF0BCFC2EE000BF00007A44C7
:1044400000FF7F4733335340263384420000C84285
:10445000CDCCCC3CCDCCCCBCDB0FC94000000000A7
:104460000AD7233C0AD723BC40F21810C2F200003E
:10447000007801280FD1FFE740F21C00C2F2004093
:1044800090ED000A1FED0D1A30EE010A80ED000AD2
:104490000BF08EFCFFE7FFE740F21C00C2F2004089
:1044A00090ED000AB1EE001AB4EE410AF1EE10FAF6
:1044B00008DAFFE740F21C01C2F200414FF08140F0
:1044C000086017E040F21C00C2F2004090ED000AC4
:1044D000B3EE0C1AB4EE410AF1EE10FA09DDFFE773
:1044E00040F21C01C2F200410020C4F2E01008605A
:1044F000FFE7FFE767E040F29030C2F2004000784B
:1045000002285FD1FFE740F29230C2F2004000780B
:1045100001280FD1FFE740F21C00C2F2004090EDED
:10452000000A1FED351A30EE010A80ED000A0BF08B
:104530003FFC17E040F21810C2F20000007801289A
:104540000FD1FFE740F21C00C2F2004090ED000ADC
:104550001FED401A30EE010A80ED000A0BF028FC36
:10456000FFE7FFE740F21C00C2F2004090ED000AB6
:10457000B2EE0E1AB4EE410AF1EE10FA09DAFFE7D4
:1045800040F21C01C2F200410020C4F27010086029
:1045900017E040F21C00C2F2004090ED000AB3EEBA
:1045A000091AB4EE410AF1EE10FA09DDFFE740F214
:1045B0001C01C2F200410020C4F2E0100860FFE7D5
:1045C000FFE7FFE7FFE740F24C10C2F20000049063
:1045D00090ED000A40F20801C2F2000191ED001ACC
:1045E0001FED632A21EE021A40F21001C2F200010F
:1045F00091ED002A01EE020A80ED000A90ED000A1A
:1046000001205FED6A0A0BF08BFB049981ED000A33
:1046100040F24012C2F2000292ED000A30EE000AAF
:1046200040F2AC33C2F2004393ED001A30EE010ABF
:10463000B0EE081A80EE010A40F2A030C2F200404B
:1046400080ED000A93ED000A92ED002A30EE420A56
:1046500080EE010A80ED010A93ED002A92ED000A36
:10466000B8EE003A12EE030A80EE010A80ED020A6B
:1046700091ED000A40F24411C2F2000105910BF0E5
:10468000AFF8059840F21C01C2F200410A6840F2FE
:104690005011C2F200010A610068C86040F21C10AB
:1046A000C2F20000007801280ED1FFE740F21000AE
:1046B000C2F2000090ED000A40F25010C2F2000079
:1046C000012108F0DDFF0DE040F21000C2F2000011
:1046D00090ED000A40F25010C2F20000002108F0F4
:1046E000CFFFFFE740F25010C2F20000006A40F234
:1046F0009831C2F20041086040F27C11C2F2000120
:104700000020086140F24410C2F200004068C86016
:1047100040F21C10C2F20000007801280ED1FFE721
:1047200040F21000C2F2000090ED000A40F27C104E
:10473000C2F20000012108F0A3FF0DE040F21000DA
:10474000C2F2000090ED000A40F27C10C2F20000BC
:10475000002108F095FFFFE740F27C10C2F2000054
:10476000016A40F29830C2F20040416040F24C11C0
:10477000C2F2000191ED000A40F22011C2F20001E4
:1047800003910BF0ADF8039840F21801C2F200411A
:1047900091ED000A40F25011C2F200410BF010F905
:1047A00040F29030C2F20040007802285FD1FFE76B
:1047B00040F29430C2F20040007801280FD1FFE7A8
:1047C00040F20C00C2F2000090ED000A1FEDDC1A6E
:1047D00030EE010A80ED000A0BF0EAFA17E040F231
:1047E0001A10C2F20000007801280FD1FFE740F252
:1047F0000C00C2F2000090ED000A1FEDE61A30EE48
:10480000010A80ED000A0BF0D3FAFFE7FFE740F260
:104810000C00C2F2000090ED000AB7EE081AB4EEE8
:10482000410AF1EE10FA08DAFFE740F20C01C2F299
:1048300000014FF07F50086018E040F20C00C2F217
:10484000000090ED000A9FEDEA1AB4EE410AF1EE85
:1048500010FA0ADDFFE740F20C01C2F2000149F64E
:104860009A10C4F219000860FFE7FFE7FFE740F283
:104870004C10C2F2000090ED000A40F2D800C2F2E3
:10488000000040F2E401C2F2000102910AF0A8FF28
:104890000298006840F23431C2F20041086140F2EF
:1048A0000C00C2F200000068C86040F21C10C2F2A6
:1048B0000000007801280ED1FFE740F21000C2F29C
:1048C000000090ED000A40F23430C2F200400121B5
:1048D00008F0D6FE0DE040F21000C2F2000090EDAC
:1048E000000A40F23430C2F20040002108F0C8FE55
:1048F000FFE740F29830C2F2004090ED000A40F22B
:104900003430C2F2004090ED081A30EE010A40F255
:104910003810C2F2000080ED000A40F2E400C2F25A
:104920000000406840F2EC01C2F200010861002082
:10493000C86040F21C10C2F20000007801280ED1BD
:10494000FFE740F21000C2F2000090ED000A40F2D2
:10495000EC00C2F20000012108F092FE0DE040F2EE
:104960001000C2F2000090ED000A40F2EC00C2F22A
:104970000000002108F084FEFFE740F29830C2F208
:10498000004090ED010A40F2EC00C2F2000090ED10
:10499000081A30EE010A40F23810C2F2000080ED31
:1049A000010A40F2D801C2F2000191ED000A91ED36
:1049B000012A91ED021A30EE020A30EE010AB0EE41
:1049C000081A80EE010A40F23031C2F2004181ED56
:1049D000000A91ED000AB2EE041A20EE010A8DEDF4
:1049E000060A40F24C11C2F2000191ED000A40F2B9
:1049F0002C11C2F2000101910AF072FF019890EDB2
:104A0000000A9DED061A30EE010A80ED000A90EDD5
:104A1000010A9DED061A30EE010A80ED010A90EDC3
:104A2000020A9DED061A30EE010A80ED020A40F2FC
:104A30001801C2F2004191ED000A40F25C11C2F28D
:104A400000410AF0BDFFFFE740F21C10C2F2000077
:104A500000780146009120B1FFE70098012812D0AC
:104A600023E040F29330C2F200400078012809D1DF
:104A7000FFE740F21C11C2F20001012008700BF0A8
:104A800097F9FFE712E040F21910C2F20000007837
:104A9000012809D1FFE740F21C11C2F200010020F9
:104AA00008700BF085F9FFE700E0FFE740F2903077
:104AB000C2F20040007801286CD1FFE740F21C10E0
:104AC000C2F200000078012846D1FFE740F22C41F5
:104AD000C4F2010191ED000AB8EE400A40F2501014
:104AE000C2F2004090ED001A20EE010ABCEEC00AAE
:104AF00040F23442C4F2010282ED000A91ED000A54
:104B0000B8EE400A90ED011A20EE010ABCEEC00A90
:104B100040F23842C4F2010282ED000A91ED000A2F
:104B2000B8EE400A90ED021A20EE010ABCEEC00A6F
:104B300040F23C40C4F2010080ED000A3421C4F28E
:104B40000101002008603821C4F2010108603C2105
:104B5000C4F2010108601CE040F23441C4F20101DA
:104B60000020086040F23841C4F20101086040F2C0
:104B70003C41C4F2010108603421C4F20101086023
:104B80003821C4F2010108603C21C4F2010108602F
:104B9000FFE7A7E040F29030C2F200400078022820
:104BA00040F09F80FFE740F21C10C2F20000007846
:104BB00000BBFFE73421C4F2010100200860382166
:104BC000C4F2010108603C21C4F20101086040F216
:104BD0003441C4F20101086040F23841C4F20101DD
:104BE000086040F23C41C4F20101086078E000BF77
:104BF0009A99194040F21C10C2F200000078012876
:104C00006DD1FFE72C21C4F2010191ED000AB8EE4D
:104C1000400A40F25C10C2F2004090ED001A20EE13
:104C2000010ABCEEC00A3422C4F2010282ED000A7D
:104C300091ED000AB8EE400A90ED011A20EE010A4B
:104C4000BCEEC00A3822C4F2010282ED000A91EDE6
:104C5000000AB8EE400A90ED021A20EE010ABCEEFE
:104C6000C00A3C20C4F2010080ED000A40F22C4151
:104C7000C4F2010191ED000AB8EE400A40F2501072
:104C8000C2F2004090ED001A20EE010ABCEEC00A0C
:104C900040F23442C4F2010282ED000A91ED000AB2
:104CA000B8EE400A90ED011A20EE010ABCEEC00AEF
:104CB00040F23842C4F2010282ED000A91ED000A8E
:104CC000B8EE400A90ED021A20EE010ABCEEC00ACE
:104CD00040F23C40C4F2010080ED000AFFE7FFE72C
:104CE000FFE7FFE740F20040C5F602004FF4005135
:104CF000002203F041F808B010BD000000000000E1
:104D000081B0009001B0704781B0009001B0704751
:104D100010B590B00E9000208DF837000A900E98D4
:104D200020B9FFE701208DF83F006EE20E98006980
:104D300040B1FFE70E9890F82000012801D1FFE76D
:104D4000FFE7FFE70E98006E50B9FFE70E9800F0FE
:104D500063FA0E99002048660E9981F85C00FFE71F
:104D60000E98006807F00CFE28B1FFE70E98006867
:104D700007F09EFDFFE70E98006807F021FEE8B9F6
:104D8000FFE70E98006807F0BBFD40F20400C2F296
:104D900000000068800942F66351C0F23E51A0FB5A
:104DA0000101012000EB91100A90FFE70A9820B161
:104DB000FFE70A9801380A90F8E7FFE70E980068C5
:104DC00007F0FEFD70B9FFE70E99086E40F0100085
:104DD00008660E99486E40F00100486601208DF883
:104DE0003700FFE70E98006807F0F2FD0B900E9871
:104DF000006EC006002800F1FA81FFE70B9800283A
:104E000040F0F581FFE70E98006E40F0020020F4BC
:104E100080700E9908660E98006807F0C1FD0028A2
:104E200070D1FFE70E980168012042F20002C4F23F
:104E30000202914207900CD0FFE70E9800684DF6F1
:104E40000071CBF6FD710844B0FA80F0400907907C
:104E5000FFE70798C10746F20030C5F602000029B7
:104E60001CBF42F20030C4F2020042F20031C4F230
:104E70000201884212D1FFE742F20000C4F20200B0
:104E800007F08EFD059042F20010C4F2020007F018
:104E900087FD014605980843069007E046F20000AA
:104EA000C5F6020007F07CFD0690FFE7069840BBC0
:104EB000FFE70E980168012042F20002C4F20202EC
:104EC000914204900CD0FFE70E9800684DF60071F7
:104ED000CBF6FD710844B0FA80F040090490FFE77A
:104EE0000498C10746F20030C5F6020000291CBF35
:104EF00042F20030C4F202000E99496807F068FEE1
:104F0000FFE7FFE70E98006846F20001C5F60201D0
:104F100088423AD1FFE70E9A517ED06B40EA413188
:104F20009068D26811430391082803D1FFE700205D
:104F300002901DE00E9880680C2803D1FFE7042042
:104F4000019012E00E9880681C2803D1FFE708202A
:104F5000009007E00E9881680020182908BF1C20E7
:104F60000090FFE700980190FFE701980290FFE7AB
:104F70000398029901F00C0140EA41000E9991F862
:104F8000201040EA01400C900CE00E994A7EC86B5C
:104F900040EA42308A68104391F8201040EA01400C
:104FA0000C90FFE70E9890F8200001280BD1FFE746
:104FB0000E98416A0020CFF6FE7000EB41410C983C
:104FC00008430C90FFE70E98806A50B1FFE70E99F6
:104FD000886AC96A00F4787001430C9808430C9001
:104FE000FFE70E98006846F20001C5F6020188420C
:104FF00018D1FFE70E980068C06844F20701CFF6A9
:10500000F07108400C9908430E990968C8600E9821
:105010000068006920F040600E9A1168526B1043DE
:1050200008610DE00E980068C0684CF20301CFF6ED
:10503000F07108400C9908430E990968C860FFE7B1
:105040000E98006807F0C4FC09900E98006807F0FD
:1050500087FC08900998002840F0A880FFE708988E
:10506000002840F0A380FFE70E98006846F2000198
:10507000C5F60201884209D1FFE70E99087E91F832
:105080003810800340EA41000C9006E00E98017E43
:10509000006B40EA81300C90FFE70E980068C06812
:1050A00044F2030188430C9908430E990968C860CB
:1050B0000E9890F84400012859D1FFE70E98006837
:1050C00046F20001C5F60201884201D1FFE700E087
:1050D000FFE70E98806A20B1FFE70E98C06A08B912
:1050E000FFE7FFE70E98006846F20001C5F60201EF
:1050F00088421BD1FFE70E98006800694FF61E0139
:10510000CFF6004100EA01020E9B1968986CD3F8B3
:105110004CE0D3F850C040EA0E0040EA0C005B6D52
:105120001843104340F0010008611FE00E9800682A
:1051300000694FF61E01CFF6004100EA01020E9B06
:1051400019689C6CD3F84CE0D3F850C00020CFF61F
:10515000FF7000EB044040EA0E0040EA0C005B6D7B
:105160001843104340F001000861FFE706E00E9885
:105170000168086920F001000861FFE70E980068E7
:10518000006920F070400E9A1168126C104308619B
:105190000E98006846F20001C5F60201884204D06C
:1051A000FFE70E98FCF798FEFFE7FFE70E9800690F
:1051B00001280CD1FFE70E980068006B20F00F006B
:1051C0000E9A1168D269013A1043086306E00E98FE
:1051D0000168086B20F00F000863FFE70E98006E6F
:1051E00040F0010020F002000E99086608E00E99D8
:1051F000086E40F01000086601208DF83700FFE7C8
:105200009DF837008DF83F00FFE79DF83F0010B094
:1052100010BD00000000000080B5BEB03D90002031
:105220003C903B903A90399038900AA8B821FBF70F
:10523000A3F93D98006842F20001C4F202018842DD
:1052400040F0C980FFE700200B904FF400210A9145
:1052500002210C9110220D920E910F911091C021FC
:1052600011911290139032900AA804F0C1F818B16D
:10527000FFE7FDF735FEFFE7FFE744F2D840C5F64C
:105280000200016841F020010160006800F0200088
:1052900009900998FFE7FFE744F2E040C5F60200F5
:1052A000016841F004010160006800F0040008900A
:1052B0000898FFE7FFE744F2E040C5F60200016806
:1052C00041F001010160006800F0010007900798BB
:1052D000FFE7FFE744F2E040C5F60200016841F055
:1052E00002010160006800F0020006900698FFE7E6
:1052F000FFE744F2E040C5F60200016841F02001FA
:105300000160006800F0200005900598FFE711207B
:105310003890032001903990002003903A9040F695
:105320000000C5F6020038A9029102F051FB019A73
:10533000029903984023389339923A900020C5F699
:10534000020002F045FB019A0299039838923992C3
:105350003A9040F20040C5F6020002F039FB019A93
:10536000029903984FF4C053389339923A9041F21E
:105370000040C5F6020002F02BFB039940F2D81062
:10538000C2F2004004901022C4F20202026009221C
:1053900042608160C1604FF4806202614FF400623C
:1053A00042614FF4005282614FF48072C261016227
:1053B000416201F0FDF918B1FFE7FDF791FDFFE74C
:1053C000FFE73D9840F2D811C2F2004181653D9857
:1053D0008863FFE7FFE73EB080BD000000000000EB
:1053E00080B588B006900591049206980168012066
:1053F00042F20002C4F20202914201900CD0FFE797
:10540000069800684DF60071CBF6FD710844B0FABD
:1054100080F040090190FFE70198C10746F2003093
:10542000C5F6020000291CBF42F20030C4F202009F
:1054300007F07EFA02900698006807F0C9FA002883
:1054400040F0C680FFE7FFE7069890F85C0001286F
:1054500004D1FFE702208DF81F00C2E00699012069
:1054600081F85C00FFE7FFE7029848B1FFE7029888
:10547000052805D0FFE70298092840F09E80FFE745
:105480000698FCF70DFF8DF80F009DF80F0000281F
:1054900040F08B80FFE70698006E40F4807040F685
:1054A00001618843069908660698006842F2001177
:1054B000C4F20201884206D1FFE742F20000C4F2C2
:1054C0000200009003E0069800680090FFE7009853
:1054D00006990968884203D0FFE7029830B9FFE7D0
:1054E0000699086E20F480100866FFE70698006EA3
:1054F000C004002806D5FFE70699486E20F0060094
:10550000486603E0069900204866FFE70698816D2B
:1055100042F2B900C0F60000C8630698816D42F2FD
:10552000C110C0F6000008640698816D42F2911027
:10553000C0F60000C864069801681C200860FFE7F8
:105540000699002081F85C00FFE70698016848682A
:1055500040F0100048600698006846F20001C5F669
:10556000020188420CD1FFE70699086891F83810CB
:10557000490007F049FA0698006807F0B5F905E018
:1055800006990868096B07F057FAFFE70698016863
:10559000806D4031059A049B01F0BEFD8DF80F002F
:1055A0000698006807F078FA06E0FFE70699002001
:1055B00081F85C00FFE7FFE709E001208DF80F00AC
:1055C000FFE70699002081F85C00FFE7FFE703E0B2
:1055D00002208DF80F00FFE79DF80F008DF81F00E7
:1055E000FFE79DF81F0008B080BD0000000000002C
:1055F00080B590B00F9000200B9040F20400C2F2F2
:105600000000006848F2B511C1F64E31A0FB011050
:10561000800A0A900F98806D09900F98806D08900D
:10562000099800680E90089800680D900F9801681E
:1056300001201022C4F202029142079000F0A380E0
:10564000FFE70F98016801202822C4F2020291426C
:10565000079000F09880FFE70F9801680120402232
:10566000C4F202029142079000F08D80FFE70F988C
:10567000016801205822C4F202029142079000F012
:105680008280FFE70F98016801207022C4F20202B5
:105690009142079077D0FFE70F9801680120882298
:1056A000C4F20202914207906DD0FFE70F980168A3
:1056B0000120A022C4F202029142079063D0FFE7CA
:1056C0000F9801680120B822C4F2020291420790AB
:1056D00059D0FFE70F980168012040F21042C4F250
:1056E0000202914207904ED0FFE70F980168012017
:1056F00040F22842C4F202029142079043D0FFE7F1
:105700000F980168012040F24042C4F20202914227
:10571000079038D0FFE70F980168012040F2584207
:10572000C4F20202914207902DD0FFE70F98016862
:10573000012040F27042C4F202029142079022D04E
:10574000FFE70F980168012040F28842C4F202028C
:105750009142079017D0FFE70F980168012040F2AF
:10576000A042C4F20202914207900CD0FFE70F98CA
:1057700000684FF64831CBF6FD710844B0FA80F06E
:1057800040090790FFE70798C007002800F013853D
:10579000FFE70E980F99C96D01F01F01C84000077F
:1057A000002840F1B080FFE70F9800681021C4F294
:1057B0000201884200F08180FFE70F9800682821ED
:1057C000C4F20201884278D0FFE70F9800684021B8
:1057D000C4F20201884270D0FFE70F980068582198
:1057E000C4F20201884268D0FFE70F980068702178
:1057F000C4F20201884260D0FFE70F980068882158
:10580000C4F20201884258D0FFE70F980068A02137
:10581000C4F20201884250D0FFE70F980068B82117
:10582000C4F20201884248D0FFE70F98006840F2B6
:105830001041C4F2020188423FD0FFE70F98006890
:1058400040F22841C4F20201884236D0FFE70F98A7
:10585000006840F24041C4F2020188422DD0FFE7C7
:105860000F98006840F25841C4F20201884224D0E7
:10587000FFE70F98006840F27041C4F202018842CD
:105880001BD0FFE70F98006840F28841C4F2020184
:10589000884212D0FFE70F98006840F2A041C4F29E
:1058A0000201884209D0FFE70F98006840F2B84132
:1058B000C4F20201884207D1FFE70F980068006830
:1058C00000F00400069006E00F980068006800F001
:1058D00008000690FFE70698A0B1FFE70F9801685F
:1058E000086820F0040008600F98C06D00F01F01E8
:1058F00008208840099988600F99486D40F00100A0
:105900004865FFE7FFE70E980F99C96D01F01F0189
:10591000C840C007002800F0A980FFE70F98006882
:105920001021C4F20201884200F08180FFE70F9845
:1059300000682821C4F20201884278D0FFE70F985E
:1059400000684021C4F20201884270D0FFE70F983E
:1059500000685821C4F20201884268D0FFE70F981E
:1059600000687021C4F20201884260D0FFE70F98FE
:1059700000688821C4F20201884258D0FFE70F98DE
:105980000068A021C4F20201884250D0FFE70F98BE
:105990000068B821C4F20201884248D0FFE70F989E
:1059A000006840F21041C4F2020188423FD0FFE794
:1059B0000F98006840F22841C4F20201884236D0B4
:1059C000FFE70F98006840F24041C4F202018842AC
:1059D0002DD0FFE70F98006840F25841C4F2020151
:1059E000884224D0FFE70F98006840F27041C4F26B
:1059F000020188421BD0FFE70F98006840F28841FF
:105A0000C4F20201884212D0FFE70F98006840F20A
:105A1000A041C4F20201884209D0FFE70F98006854
:105A200040F2B841C4F20201884207D1FFE70F9863
:105A30000068406900F08000059005E00F9800685C
:105A4000006800200590FFE7059870B1FFE70F9808
:105A5000C06D00F01F0101208840099988600F99EE
:105A6000486D40F002004865FFE7FFE70E980F9988
:105A7000C96D01F01F01C8404007002840F1A9800E
:105A8000FFE70F9800681021C4F20201884200F07D
:105A90008180FFE70F9800682821C4F20201884244
:105AA00078D0FFE70F9800684021C4F202018842D5
:105AB00070D0FFE70F9800685821C4F202018842B5
:105AC00068D0FFE70F9800687021C4F20201884295
:105AD00060D0FFE70F9800688821C4F20201884275
